{
  "transactions": [
    {
      "hash": "0xd4890b6359545110865ab464ebb73049ff8d03e782bf049b989c536c1ceb25be",
      "transactionType": "CALL",
      "contractName": null,
      "contractAddress": "0x53ace7307b7dbf39f9fb5876fcfd3ac1fb07471e",
      "function": "setTREXFactory(address)",
      "arguments": [
        "0x19c99c82512E85732d0f9c563E550bea00A04070"
      ],
      "transaction": {
        "from": "0x0af700a3026adfddc10f7aa8ba2419e8503592f7",
        "to": "0x53ace7307b7dbf39f9fb5876fcfd3ac1fb07471e",
        "gas": "0xbf5d",
        "value": "0x0",
        "input": "0x6df2378900000000000000000000000019c99c82512e85732d0f9c563e550bea00a04070",
        "nonce": "0x12f",
        "chainId": "0x13882"
      },
      "additionalContracts": [],
      "isFixedGasLimit": false
    }
  ],
  "receipts": [
    {
      "status": "0x1",
      "cumulativeGasUsed": "0x8a8c",
      "logs": [
        {
          "address": "0x53ace7307b7dbf39f9fb5876fcfd3ac1fb07471e",
          "topics": [
            "0xf068c7797c3b666af662a0e2f018804080dc37610a1b82b55006872b06d30ef5",
            "0x00000000000000000000000019c99c82512e85732d0f9c563e550bea00a04070"
          ],
          "data": "0x",
          "blockHash": "0xed5d860a52bbbb5a313082aa43d33826db3ef6075322b4e2927b0f8300941645",
          "blockNumber": "0x1875373",
          "transactionHash": "0xd4890b6359545110865ab464ebb73049ff8d03e782bf049b989c536c1ceb25be",
          "transactionIndex": "0x0",
          "logIndex": "0x0",
          "removed": false
        },
        {
          "address": "0x0000000000000000000000000000000000001010",
          "topics": [
            "0x4dfe1bbbcf077ddc3e01291eea2d5c70c2b422b415d95645b9adcfd678cb1d63",
            "0x0000000000000000000000000000000000000000000000000000000000001010",
            "0x0000000000000000000000000af700a3026adfddc10f7aa8ba2419e8503592f7",
            "0x0000000000000000000000006dc2dd54f24979ec26212794c71afefed722280c"
          ],
          "data": "0x00000000000000000000000000000000000000000000000000193397740ba78c0000000000000000000000000000000000000000000000033473d830f1ca5a0e00000000000000000000000000000000000000000000094278ade0fdc56a14dd000000000000000000000000000000000000000000000003345aa4997dbeb28200000000000000000000000000000000000000000000094278c714953975bc69",
          "blockHash": "0xed5d860a52bbbb5a313082aa43d33826db3ef6075322b4e2927b0f8300941645",
          "blockNumber": "0x1875373",
          "transactionHash": "0xd4890b6359545110865ab464ebb73049ff8d03e782bf049b989c536c1ceb25be",
          "transactionIndex": "0x0",
          "logIndex": "0x1",
          "removed": false
        }
      ],
      "logsBloom": "0x00000000000000000000000040000000000000000000008001000000000000000000000000000002000000000000000000108000000000000000000000000000000000000000000000100000000000800000000000000000000100080000000000000000000000000000000000000000000000000000000080000000000000020040000000000000000000000050000000000000000004000000000000000000200000000000000010000000000000000000000000000000000000000000004000000000000000000001002000000000000000000000000000100000000000000000000000000000000008000000000000000000000000000000000000100000",
      "type": "0x2",
      "transactionHash": "0xd4890b6359545110865ab464ebb73049ff8d03e782bf049b989c536c1ceb25be",
      "transactionIndex": "0x0",
      "blockHash": "0xed5d860a52bbbb5a313082aa43d33826db3ef6075322b4e2927b0f8300941645",
      "blockNumber": "0x1875373",
      "gasUsed": "0x8a8c",
      "effectiveGasPrice": "0x2e90edd000",
      "from": "0x0af700a3026adfddc10f7aa8ba2419e8503592f7",
      "to": "0x53ace7307b7dbf39f9fb5876fcfd3ac1fb07471e",
      "contractAddress": null
    }
  ],
  "libraries": [],
  "pending": [],
  "returns": {},
  "timestamp": 1756244548714,
  "chain": 80002,
  "commit": "3dcb0a3"
}