{
  "transactions": [
    {
      "hash": "0x21b006ffb250b69550b611ad867e215d42ab877fd46150e77fb4007b5f9cc10f",
      "transactionType": "CALL",
      "contractName": null,
      "contractAddress": "0x19c99c82512e85732d0f9c563e550bea00a04070",
      "function": "deployTREXSuite(string,(address,string,string,uint8,address,address,address[],address[],address[],bytes[]),(uint256[],address[],uint256[][]))",
      "arguments": [
        "RWA-Real-Estate-Token-1",
        "(0x0af700A3026adFddC10f7Aa8Ba2419e8503592f7, My Real World Asset Token, RWAT, 18, 0x0000000000000000000000000000000000000000, 0x0000000000000000000000000000000000000000, [0x0af700A3026adFddC10f7Aa8Ba2419e8503592f7], [0x0af700A3026adFddC10f7Aa8Ba2419e8503592f7], [], [])",
        "([0], [0x0af700A3026adFddC10f7Aa8Ba2419e8503592f7], [[0]])"
      ],
      "transaction": {
        "from": "0x0af700a3026adfddc10f7aa8ba2419e8503592f7",
        "to": "0x19c99c82512e85732d0f9c563e550bea00a04070",
        "gas": "0x49bd6f",
        "value": "0x0",
        "input": "0xcf753d37000000000000000000000000000000000000000000000000000000000000006000000000000000000000000000000000000000000000000000000000000000a0000000000000000000000000000000000000000000000000000000000000032000000000000000000000000000000000000000000000000000000000000000175257412d5265616c2d4573746174652d546f6b656e2d310000000000000000000000000000000000000000000af700a3026adfddc10f7aa8ba2419e8503592f70000000000000000000000000000000000000000000000000000000000000140000000000000000000000000000000000000000000000000000000000000018000000000000000000000000000000000000000000000000000000000000000120000000000000000000000000000000000000000000000000000000000000000000000000000000000000000000000000000000000000000000000000000000000000000000000000000000000000000000000000000000000000000000001c000000000000000000000000000000000000000000000000000000000000002000000000000000000000000000000000000000000000000000000000000000240000000000000000000000000000000000000000000000000000000000000026000000000000000000000000000000000000000000000000000000000000000194d79205265616c20576f726c6420417373657420546f6b656e000000000000000000000000000000000000000000000000000000000000000000000000000004525741540000000000000000000000000000000000000000000000000000000000000000000000000000000000000000000000000000000000000000000000010000000000000000000000000af700a3026adfddc10f7aa8ba2419e8503592f700000000000000000000000000000000000000000000000000000000000000010000000000000000000000000af700a3026adfddc10f7aa8ba2419e8503592f700000000000000000000000000000000000000000000000000000000000000000000000000000000000000000000000000000000000000000000000000000000000000000000000000000000000000000000000000000000000000000000006000000000000000000000000000000000000000000000000000000000000000a000000000000000000000000000000000000000000000000000000000000000e00000000000000000000000000000000000000000000000000000000000000001000000000000000000000000000000000000000000000000000000000000000000000000000000000000000000000000000000000000000000000000000000010000000000000000000000000af700a3026adfddc10f7aa8ba2419e8503592f70000000000000000000000000000000000000000000000000000000000000001000000000000000000000000000000000000000000000000000000000000002000000000000000000000000000000000000000000000000000000000000000010000000000000000000000000000000000000000000000000000000000000000",
        "nonce": "0x132",
        "chainId": "0x13882"
      },
      "additionalContracts": [
        {
          "transactionType": "CREATE2",
          "address": "0x37385a6fd022893b95698a2adc96e61b00772a94",
          "initCode": "0x6080604090808252346102105761002c9061082880380380916100228285610215565b833981019061024e565b6001600160a01b0381169081156101cc577f821f3e4d3d679f19eacc940c87acf846ea6eae24a63058ea750304437a62aafc5581519081600091807f3b1074392ed8e8424715d0dda2197eede67080b377fc8370e26f3e882207f6b88480a2637f6e602960e11b825281600460209586935afa9081156101c2578291610195575b5083516370e39c9560e11b848201908152600482526001600160401b039291808701848111828210176101815787525184928392905af4913d1561017a573d91821161016657845191610109601f8201601f1916860184610215565b8252833d92013e5b156101245750516105ba908161026e8239f35b606491519062461bcd60e51b82526004820152601660248201527f496e697469616c697a6174696f6e206661696c65642e000000000000000000006044820152fd5b634e487b7160e01b81526041600452602490fd5b5050610111565b634e487b7160e01b86526041600452602486fd5b6101b59150833d85116101bb575b6101ad8183610215565b81019061024e565b386100ad565b503d6101a3565b84513d84823e3d90fd5b825162461bcd60e51b815260206004820152601f60248201527f696e76616c696420617267756d656e74202d207a65726f2061646472657373006044820152606490fd5b600080fd5b601f909101601f19168101906001600160401b0382119082101761023857604052565b634e487b7160e01b600052604160045260246000fd5b9081602091031261021057516001600160a01b0381168103610210579056fe60406080815260048036101561001a575b6100186104ce565b005b600091823560e01c80632d5f11871461032b576392dd9d651461003d5750610010565b346103275760209182600319360112610323576100ef6101019282359261006384610362565b60008051602061056583398151915254610087906001600160a01b03163314610378565b6001600160a01b038481169661009e8815156103da565b835163709bc7f360e01b81528290828186818d5afa908115610316575b8b916102f9575b5016151592836102a0575b83610247575b836101ee575b83610195575b83610128575b5050509050610483565b60008051602061056583398151915255565b7f3b1074392ed8e8424715d0dda2197eede67080b377fc8370e26f3e882207f6b88280a280f35b9193819350518092637f6e602960e11b8252818a5afa918215610188575b889261015b575b5050161515803880806100e5565b61017a9250803d10610181575b6101728183610426565b81019061045e565b388061014d565b503d610168565b610190610476565b610146565b92508184516361f8982560e01b8152828186818d5afa9081156101e1575b8b916101c4575b50161515926100df565b6101db9150833d8511610181576101728183610426565b386101ba565b6101e9610476565b6101b3565b9250818451639e3e7bb960e01b8152828186818d5afa90811561023a575b8b9161021d575b50161515926100d9565b6102349150833d8511610181576101728183610426565b38610213565b610242610476565b61020c565b9250818451631ee9ce8b60e01b8152828186818d5afa908115610293575b8b91610276575b50161515926100d3565b61028d9150833d8511610181576101728183610426565b3861026c565b61029b610476565b610265565b9250818451636ff6e83f60e01b8152828186818d5afa9081156102ec575b8b916102cf575b50161515926100cd565b6102e69150833d8511610181576101728183610426565b386102c5565b6102f4610476565b6102be565b6103109150833d8511610181576101728183610426565b386100c2565b61031e610476565b6100bb565b8380fd5b8280fd5b833461035f578060031936011261035f57600080516020610565833981519152546001600160a01b03166080908152602090f35b80fd5b6001600160a01b0381160361037357565b600080fd5b1561037f57565b60405162461bcd60e51b815260206004820152602d60248201527f6f6e6c792063757272656e7420696d706c656d656e746174696f6e417574686f60448201526c1c9a5d1e4818d85b8818d85b1b609a1b6064820152608490fd5b156103e157565b60405162461bcd60e51b815260206004820152601f60248201527f696e76616c696420617267756d656e74202d207a65726f2061646472657373006044820152606490fd5b90601f8019910116810190811067ffffffffffffffff82111761044857604052565b634e487b7160e01b600052604160045260246000fd5b90816020910312610373575161047381610362565b90565b506040513d6000823e3d90fd5b1561048a57565b606460405162461bcd60e51b815260206004820152602060248201527f696e76616c696420496d706c656d656e746174696f6e20417574686f726974796044820152fd5b5060008051602061056583398151915254604051637f6e602960e11b8152600091829190602090829060049082906001600160a01b03165afa908115610557575b8291610539575b503682803781369161270f195a01f43d90816000803e15610535576000f35b6000fd5b610551915060203d8111610181576101728183610426565b38610516565b61055f610476565b61050f56fe821f3e4d3d679f19eacc940c87acf846ea6eae24a63058ea750304437a62aafca26469706673582212200cad523429d750ec8f22ab3bf738e4d32aad078518a4ea4a7d244e8bfdb444a364736f6c6343000811003300000000000000000000000053ace7307b7dbf39f9fb5876fcfd3ac1fb07471e"
        },
        {
          "transactionType": "CREATE2",
          "address": "0xb3c5b40afab0070fa6cbae52b54292da981c42b8",
          "initCode": "0x6080604090808252346102105761002c9061082880380380916100228285610215565b833981019061024e565b6001600160a01b0381169081156101cc577f821f3e4d3d679f19eacc940c87acf846ea6eae24a63058ea750304437a62aafc5581519081600091807f3b1074392ed8e8424715d0dda2197eede67080b377fc8370e26f3e882207f6b88480a2636ff6e83f60e01b825281600460209586935afa9081156101c2578291610195575b5083516370e39c9560e11b848201908152600482526001600160401b039291808701848111828210176101815787525184928392905af4913d1561017a573d91821161016657845191610109601f8201601f1916860184610215565b8252833d92013e5b156101245750516105ba908161026e8239f35b606491519062461bcd60e51b82526004820152601660248201527f496e697469616c697a6174696f6e206661696c65642e000000000000000000006044820152fd5b634e487b7160e01b81526041600452602490fd5b5050610111565b634e487b7160e01b86526041600452602486fd5b6101b59150833d85116101bb575b6101ad8183610215565b81019061024e565b386100ad565b503d6101a3565b84513d84823e3d90fd5b825162461bcd60e51b815260206004820152601f60248201527f696e76616c696420617267756d656e74202d207a65726f2061646472657373006044820152606490fd5b600080fd5b601f909101601f19168101906001600160401b0382119082101761023857604052565b634e487b7160e01b600052604160045260246000fd5b9081602091031261021057516001600160a01b0381168103610210579056fe60406080815260048036101561001a575b6100186104ce565b005b600091823560e01c80632d5f11871461032b576392dd9d651461003d5750610010565b346103275760209182600319360112610323576100ef6101019282359261006384610362565b60008051602061056583398151915254610087906001600160a01b03163314610378565b6001600160a01b038481169661009e8815156103da565b835163709bc7f360e01b81528290828186818d5afa908115610316575b8b916102f9575b5016151592836102a0575b83610247575b836101ee575b83610195575b83610128575b5050509050610483565b60008051602061056583398151915255565b7f3b1074392ed8e8424715d0dda2197eede67080b377fc8370e26f3e882207f6b88280a280f35b9193819350518092637f6e602960e11b8252818a5afa918215610188575b889261015b575b5050161515803880806100e5565b61017a9250803d10610181575b6101728183610426565b81019061045e565b388061014d565b503d610168565b610190610476565b610146565b92508184516361f8982560e01b8152828186818d5afa9081156101e1575b8b916101c4575b50161515926100df565b6101db9150833d8511610181576101728183610426565b386101ba565b6101e9610476565b6101b3565b9250818451639e3e7bb960e01b8152828186818d5afa90811561023a575b8b9161021d575b50161515926100d9565b6102349150833d8511610181576101728183610426565b38610213565b610242610476565b61020c565b9250818451631ee9ce8b60e01b8152828186818d5afa908115610293575b8b91610276575b50161515926100d3565b61028d9150833d8511610181576101728183610426565b3861026c565b61029b610476565b610265565b9250818451636ff6e83f60e01b8152828186818d5afa9081156102ec575b8b916102cf575b50161515926100cd565b6102e69150833d8511610181576101728183610426565b386102c5565b6102f4610476565b6102be565b6103109150833d8511610181576101728183610426565b386100c2565b61031e610476565b6100bb565b8380fd5b8280fd5b833461035f578060031936011261035f57600080516020610565833981519152546001600160a01b03166080908152602090f35b80fd5b6001600160a01b0381160361037357565b600080fd5b1561037f57565b60405162461bcd60e51b815260206004820152602d60248201527f6f6e6c792063757272656e7420696d706c656d656e746174696f6e417574686f60448201526c1c9a5d1e4818d85b8818d85b1b609a1b6064820152608490fd5b156103e157565b60405162461bcd60e51b815260206004820152601f60248201527f696e76616c696420617267756d656e74202d207a65726f2061646472657373006044820152606490fd5b90601f8019910116810190811067ffffffffffffffff82111761044857604052565b634e487b7160e01b600052604160045260246000fd5b90816020910312610373575161047381610362565b90565b506040513d6000823e3d90fd5b1561048a57565b606460405162461bcd60e51b815260206004820152602060248201527f696e76616c696420496d706c656d656e746174696f6e20417574686f726974796044820152fd5b5060008051602061056583398151915254604051636ff6e83f60e01b8152600091829190602090829060049082906001600160a01b03165afa908115610557575b8291610539575b503682803781369161270f195a01f43d90816000803e15610535576000f35b6000fd5b610551915060203d8111610181576101728183610426565b38610516565b61055f610476565b61050f56fe821f3e4d3d679f19eacc940c87acf846ea6eae24a63058ea750304437a62aafca264697066735822122055739652a3f10a47c7f5efd801d559948f74d6619375c6bc35babb071ef2403864736f6c6343000811003300000000000000000000000053ace7307b7dbf39f9fb5876fcfd3ac1fb07471e"
        },
        {
          "transactionType": "CREATE2",
          "address": "0x868ad2ea05e0b39c0b92537e05b219b5d3d9cf24",
          "initCode": "0x6080604090808252346102105761002c9061082880380380916100228285610215565b833981019061024e565b6001600160a01b0381169081156101cc577f821f3e4d3d679f19eacc940c87acf846ea6eae24a63058ea750304437a62aafc5581519081600091807f3b1074392ed8e8424715d0dda2197eede67080b377fc8370e26f3e882207f6b88480a26361f8982560e01b825281600460209586935afa9081156101c2578291610195575b5083516370e39c9560e11b848201908152600482526001600160401b039291808701848111828210176101815787525184928392905af4913d1561017a573d91821161016657845191610109601f8201601f1916860184610215565b8252833d92013e5b156101245750516105ba908161026e8239f35b606491519062461bcd60e51b82526004820152601660248201527f496e697469616c697a6174696f6e206661696c65642e000000000000000000006044820152fd5b634e487b7160e01b81526041600452602490fd5b5050610111565b634e487b7160e01b86526041600452602486fd5b6101b59150833d85116101bb575b6101ad8183610215565b81019061024e565b386100ad565b503d6101a3565b84513d84823e3d90fd5b825162461bcd60e51b815260206004820152601f60248201527f696e76616c696420617267756d656e74202d207a65726f2061646472657373006044820152606490fd5b600080fd5b601f909101601f19168101906001600160401b0382119082101761023857604052565b634e487b7160e01b600052604160045260246000fd5b9081602091031261021057516001600160a01b0381168103610210579056fe60406080815260048036101561001a575b6100186104ce565b005b600091823560e01c80632d5f11871461032b576392dd9d651461003d5750610010565b346103275760209182600319360112610323576100ef6101019282359261006384610362565b60008051602061056583398151915254610087906001600160a01b03163314610378565b6001600160a01b038481169661009e8815156103da565b835163709bc7f360e01b81528290828186818d5afa908115610316575b8b916102f9575b5016151592836102a0575b83610247575b836101ee575b83610195575b83610128575b5050509050610483565b60008051602061056583398151915255565b7f3b1074392ed8e8424715d0dda2197eede67080b377fc8370e26f3e882207f6b88280a280f35b9193819350518092637f6e602960e11b8252818a5afa918215610188575b889261015b575b5050161515803880806100e5565b61017a9250803d10610181575b6101728183610426565b81019061045e565b388061014d565b503d610168565b610190610476565b610146565b92508184516361f8982560e01b8152828186818d5afa9081156101e1575b8b916101c4575b50161515926100df565b6101db9150833d8511610181576101728183610426565b386101ba565b6101e9610476565b6101b3565b9250818451639e3e7bb960e01b8152828186818d5afa90811561023a575b8b9161021d575b50161515926100d9565b6102349150833d8511610181576101728183610426565b38610213565b610242610476565b61020c565b9250818451631ee9ce8b60e01b8152828186818d5afa908115610293575b8b91610276575b50161515926100d3565b61028d9150833d8511610181576101728183610426565b3861026c565b61029b610476565b610265565b9250818451636ff6e83f60e01b8152828186818d5afa9081156102ec575b8b916102cf575b50161515926100cd565b6102e69150833d8511610181576101728183610426565b386102c5565b6102f4610476565b6102be565b6103109150833d8511610181576101728183610426565b386100c2565b61031e610476565b6100bb565b8380fd5b8280fd5b833461035f578060031936011261035f57600080516020610565833981519152546001600160a01b03166080908152602090f35b80fd5b6001600160a01b0381160361037357565b600080fd5b1561037f57565b60405162461bcd60e51b815260206004820152602d60248201527f6f6e6c792063757272656e7420696d706c656d656e746174696f6e417574686f60448201526c1c9a5d1e4818d85b8818d85b1b609a1b6064820152608490fd5b156103e157565b60405162461bcd60e51b815260206004820152601f60248201527f696e76616c696420617267756d656e74202d207a65726f2061646472657373006044820152606490fd5b90601f8019910116810190811067ffffffffffffffff82111761044857604052565b634e487b7160e01b600052604160045260246000fd5b90816020910312610373575161047381610362565b90565b506040513d6000823e3d90fd5b1561048a57565b606460405162461bcd60e51b815260206004820152602060248201527f696e76616c696420496d706c656d656e746174696f6e20417574686f726974796044820152fd5b50600080516020610565833981519152546040516361f8982560e01b8152600091829190602090829060049082906001600160a01b03165afa908115610557575b8291610539575b503682803781369161270f195a01f43d90816000803e15610535576000f35b6000fd5b610551915060203d8111610181576101728183610426565b38610516565b61055f610476565b61050f56fe821f3e4d3d679f19eacc940c87acf846ea6eae24a63058ea750304437a62aafca2646970667358221220d431d6e60dacb0af37ba3918f6cf12c91e475066ba9f07136461d65fe5b091ea64736f6c6343000811003300000000000000000000000053ace7307b7dbf39f9fb5876fcfd3ac1fb07471e"
        },
        {
          "transactionType": "CREATE2",
          "address": "0xff99b40f3e3bd39b3c7f3ca4a0e3a4518e6d4a9a",
          "initCode": "0x6080604090808252346102105761002c9061082880380380916100228285610215565b833981019061024e565b6001600160a01b0381169081156101cc577f821f3e4d3d679f19eacc940c87acf846ea6eae24a63058ea750304437a62aafc5581519081600091807f3b1074392ed8e8424715d0dda2197eede67080b377fc8370e26f3e882207f6b88480a2639e3e7bb960e01b825281600460209586935afa9081156101c2578291610195575b5083516370e39c9560e11b848201908152600482526001600160401b039291808701848111828210176101815787525184928392905af4913d1561017a573d91821161016657845191610109601f8201601f1916860184610215565b8252833d92013e5b156101245750516105ba908161026e8239f35b606491519062461bcd60e51b82526004820152601660248201527f496e697469616c697a6174696f6e206661696c65642e000000000000000000006044820152fd5b634e487b7160e01b81526041600452602490fd5b5050610111565b634e487b7160e01b86526041600452602486fd5b6101b59150833d85116101bb575b6101ad8183610215565b81019061024e565b386100ad565b503d6101a3565b84513d84823e3d90fd5b825162461bcd60e51b815260206004820152601f60248201527f696e76616c696420617267756d656e74202d207a65726f2061646472657373006044820152606490fd5b600080fd5b601f909101601f19168101906001600160401b0382119082101761023857604052565b634e487b7160e01b600052604160045260246000fd5b9081602091031261021057516001600160a01b0381168103610210579056fe60406080815260048036101561001a575b6100186104ce565b005b600091823560e01c80632d5f11871461032b576392dd9d651461003d5750610010565b346103275760209182600319360112610323576100ef6101019282359261006384610362565b60008051602061056583398151915254610087906001600160a01b03163314610378565b6001600160a01b038481169661009e8815156103da565b835163709bc7f360e01b81528290828186818d5afa908115610316575b8b916102f9575b5016151592836102a0575b83610247575b836101ee575b83610195575b83610128575b5050509050610483565b60008051602061056583398151915255565b7f3b1074392ed8e8424715d0dda2197eede67080b377fc8370e26f3e882207f6b88280a280f35b9193819350518092637f6e602960e11b8252818a5afa918215610188575b889261015b575b5050161515803880806100e5565b61017a9250803d10610181575b6101728183610426565b81019061045e565b388061014d565b503d610168565b610190610476565b610146565b92508184516361f8982560e01b8152828186818d5afa9081156101e1575b8b916101c4575b50161515926100df565b6101db9150833d8511610181576101728183610426565b386101ba565b6101e9610476565b6101b3565b9250818451639e3e7bb960e01b8152828186818d5afa90811561023a575b8b9161021d575b50161515926100d9565b6102349150833d8511610181576101728183610426565b38610213565b610242610476565b61020c565b9250818451631ee9ce8b60e01b8152828186818d5afa908115610293575b8b91610276575b50161515926100d3565b61028d9150833d8511610181576101728183610426565b3861026c565b61029b610476565b610265565b9250818451636ff6e83f60e01b8152828186818d5afa9081156102ec575b8b916102cf575b50161515926100cd565b6102e69150833d8511610181576101728183610426565b386102c5565b6102f4610476565b6102be565b6103109150833d8511610181576101728183610426565b386100c2565b61031e610476565b6100bb565b8380fd5b8280fd5b833461035f578060031936011261035f57600080516020610565833981519152546001600160a01b03166080908152602090f35b80fd5b6001600160a01b0381160361037357565b600080fd5b1561037f57565b60405162461bcd60e51b815260206004820152602d60248201527f6f6e6c792063757272656e7420696d706c656d656e746174696f6e417574686f60448201526c1c9a5d1e4818d85b8818d85b1b609a1b6064820152608490fd5b156103e157565b60405162461bcd60e51b815260206004820152601f60248201527f696e76616c696420617267756d656e74202d207a65726f2061646472657373006044820152606490fd5b90601f8019910116810190811067ffffffffffffffff82111761044857604052565b634e487b7160e01b600052604160045260246000fd5b90816020910312610373575161047381610362565b90565b506040513d6000823e3d90fd5b1561048a57565b606460405162461bcd60e51b815260206004820152602060248201527f696e76616c696420496d706c656d656e746174696f6e20417574686f726974796044820152fd5b5060008051602061056583398151915254604051639e3e7bb960e01b8152600091829190602090829060049082906001600160a01b03165afa908115610557575b8291610539575b503682803781369161270f195a01f43d90816000803e15610535576000f35b6000fd5b610551915060203d8111610181576101728183610426565b38610516565b61055f610476565b61050f56fe821f3e4d3d679f19eacc940c87acf846ea6eae24a63058ea750304437a62aafca26469706673582212202d11bb820e28f30a7b61f497a8db6ed1874b4f0c26b3570a27a44be6144fa35e64736f6c6343000811003300000000000000000000000053ace7307b7dbf39f9fb5876fcfd3ac1fb07471e"
        },
        {
          "transactionType": "CREATE2",
          "address": "0x8a04fb4d545228639b3db0582332a3615a8e33e9",
          "initCode": "0x608060409080825234610298576080816108a58038038091610021828561029d565b83398101031261029857610034816102d6565b6020916100428382016102d6565b61005960606100528785016102d6565b93016102d6565b6001600160a01b03848116949192918515158061028d575b80610282575b80610277575b15610233577f821f3e4d3d679f19eacc940c87acf846ea6eae24a63058ea750304437a62aafc558651928684600481600099807f3b1074392ed8e8424715d0dda2197eede67080b377fc8370e26f3e882207f6b88c80a2631ee9ce8b60e01b82525afa9384156102295786946101ee575b50875163184b955960e01b888201908152938316602482015294821660448601521660648085019190915283526001600160401b039260a08101848111828210176101da5787525184928392905af4913d156101d3573d9182116101bf57845191610162601f8201601f191686018461029d565b8252833d92013e5b1561017d5750516105ba90816102eb8239f35b606491519062461bcd60e51b82526004820152601660248201527f496e697469616c697a6174696f6e206661696c65642e000000000000000000006044820152fd5b634e487b7160e01b81526041600452602490fd5b505061016a565b634e487b7160e01b86526041600452602486fd5b9093508681813d8311610222575b610206818361029d565b8101031261021e57610217906102d6565b92386100ee565b8580fd5b503d6101fc565b88513d88823e3d90fd5b875162461bcd60e51b815260048101889052601f60248201527f696e76616c696420617267756d656e74202d207a65726f2061646472657373006044820152606490fd5b50818416151561007d565b508185161515610077565b508183161515610071565b600080fd5b601f909101601f19168101906001600160401b038211908210176102c057604052565b634e487b7160e01b600052604160045260246000fd5b51906001600160a01b03821682036102985756fe60406080815260048036101561001a575b6100186104ce565b005b600091823560e01c80632d5f11871461032b576392dd9d651461003d5750610010565b346103275760209182600319360112610323576100ef6101019282359261006384610362565b60008051602061056583398151915254610087906001600160a01b03163314610378565b6001600160a01b038481169661009e8815156103da565b835163709bc7f360e01b81528290828186818d5afa908115610316575b8b916102f9575b5016151592836102a0575b83610247575b836101ee575b83610195575b83610128575b5050509050610483565b60008051602061056583398151915255565b7f3b1074392ed8e8424715d0dda2197eede67080b377fc8370e26f3e882207f6b88280a280f35b9193819350518092637f6e602960e11b8252818a5afa918215610188575b889261015b575b5050161515803880806100e5565b61017a9250803d10610181575b6101728183610426565b81019061045e565b388061014d565b503d610168565b610190610476565b610146565b92508184516361f8982560e01b8152828186818d5afa9081156101e1575b8b916101c4575b50161515926100df565b6101db9150833d8511610181576101728183610426565b386101ba565b6101e9610476565b6101b3565b9250818451639e3e7bb960e01b8152828186818d5afa90811561023a575b8b9161021d575b50161515926100d9565b6102349150833d8511610181576101728183610426565b38610213565b610242610476565b61020c565b9250818451631ee9ce8b60e01b8152828186818d5afa908115610293575b8b91610276575b50161515926100d3565b61028d9150833d8511610181576101728183610426565b3861026c565b61029b610476565b610265565b9250818451636ff6e83f60e01b8152828186818d5afa9081156102ec575b8b916102cf575b50161515926100cd565b6102e69150833d8511610181576101728183610426565b386102c5565b6102f4610476565b6102be565b6103109150833d8511610181576101728183610426565b386100c2565b61031e610476565b6100bb565b8380fd5b8280fd5b833461035f578060031936011261035f57600080516020610565833981519152546001600160a01b03166080908152602090f35b80fd5b6001600160a01b0381160361037357565b600080fd5b1561037f57565b60405162461bcd60e51b815260206004820152602d60248201527f6f6e6c792063757272656e7420696d706c656d656e746174696f6e417574686f60448201526c1c9a5d1e4818d85b8818d85b1b609a1b6064820152608490fd5b156103e157565b60405162461bcd60e51b815260206004820152601f60248201527f696e76616c696420617267756d656e74202d207a65726f2061646472657373006044820152606490fd5b90601f8019910116810190811067ffffffffffffffff82111761044857604052565b634e487b7160e01b600052604160045260246000fd5b90816020910312610373575161047381610362565b90565b506040513d6000823e3d90fd5b1561048a57565b606460405162461bcd60e51b815260206004820152602060248201527f696e76616c696420496d706c656d656e746174696f6e20417574686f726974796044820152fd5b5060008051602061056583398151915254604051631ee9ce8b60e01b8152600091829190602090829060049082906001600160a01b03165afa908115610557575b8291610539575b503682803781369161270f195a01f43d90816000803e15610535576000f35b6000fd5b610551915060203d8111610181576101728183610426565b38610516565b61055f610476565b61050f56fe821f3e4d3d679f19eacc940c87acf846ea6eae24a63058ea750304437a62aafca2646970667358221220b7a6832da522f9ba87a6a7dfd1e46b24c9fbc54e9955323fb515350c2e1dcaf264736f6c6343000811003300000000000000000000000053ace7307b7dbf39f9fb5876fcfd3ac1fb07471e00000000000000000000000037385a6fd022893b95698a2adc96e61b00772a94000000000000000000000000b3c5b40afab0070fa6cbae52b54292da981c42b8000000000000000000000000ff99b40f3e3bd39b3c7f3ca4a0e3a4518e6d4a9a"
        },
        {
          "transactionType": "CREATE2",
          "address": "0x5bc71a4b1dbda3d7605268103e4676df5b807f57",
          "initCode": "0x6080604081815234620004885762000b688038038091620000218286620004bf565b8439820160e08382031262000488576200003b83620004e3565b6020916200004b838601620004e3565b62000058858701620004e3565b60608701519096906001600160401b03908181116200048857846200007f91840162000539565b93608083015191821162000488576200009a91830162000539565b9060a08101519060ff8216809203620004885760c0620000bb9101620004e3565b6001600160a01b0386811695909390861515806200047c575b8062000470575b156200042c57899a8a999a51988b8a018c81528a620000fd8d82018662000586565b039a62000113601f199c8d8101835282620004bf565b5190208c8c5181810191825260009d8e81830152815262000134816200048d565b519020141580620003d5575b156200039157601286116200034d577f3b1074392ed8e8424715d0dda2197eede67080b377fc8370e26f3e882207f6b860048c8f8f94908d917f821f3e4d3d679f19eacc940c87acf846ea6eae24a63058ea750304437a62aafc55519c8d94838694a263709bc7f360e01b82525afa9788156200034357918a9897969593918d8d96948b9a620002cd575b508a9b9593620002138994856200023f9a98956200022695519c8d9a8b019e8f633e46d86760e21b90521660248b015216604489015260c0606489015260e488019062000586565b8681036023190160848801529062000586565b9260a48501521660c483015203908101835282620004bf565b51915af4903d15620002c6573d906200025882620004f8565b916200026786519384620004bf565b8252833d92013e5b15620002845750516105ba9081620005ae8239f35b606491519062461bcd60e51b82526004820152601660248201527f496e697469616c697a6174696f6e206661696c65642e000000000000000000006044820152fd5b506200026f565b93969295989b9950509295985081813d83116200033b575b620002f18183620004bf565b81010312620003375794878095620002266200023f968f9a968f96908f9e9b9d8f9e92620003236200021394620004e3565b9e955095989a505094505093959b620001cb565b8980fd5b503d620002e5565b8c513d8c823e3d90fd5b8c5162461bcd60e51b8152600481018d9052601960248201527f646563696d616c73206265747765656e203020616e64203138000000000000006044820152606490fd5b8c5162461bcd60e51b8152600481018d9052601f60248201527f696e76616c696420617267756d656e74202d20656d70747920737472696e67006044820152606490fd5b508c8c8c8c8351620004038482019285845282620003f68882018d62000586565b03908101835282620004bf565b5190209280519183830193845281830152815262000421816200048d565b519020141562000140565b895162461bcd60e51b8152600481018a9052601f60248201527f696e76616c696420617267756d656e74202d207a65726f2061646472657373006044820152606490fd5b50848b161515620000db565b508486161515620000d4565b600080fd5b606081019081106001600160401b03821117620004a957604052565b634e487b7160e01b600052604160045260246000fd5b601f909101601f19168101906001600160401b03821190821017620004a957604052565b51906001600160a01b03821682036200048857565b6001600160401b038111620004a957601f01601f191660200190565b60005b838110620005285750506000910152565b818101518382015260200162000517565b81601f82011215620004885780516200055281620004f8565b92620005626040519485620004bf565b81845260208284010111620004885762000583916020808501910162000514565b90565b90602091620005a18151809281855285808601910162000514565b601f01601f191601019056fe60406080815260048036101561001a575b6100186104ce565b005b600091823560e01c80632d5f11871461032b576392dd9d651461003d5750610010565b346103275760209182600319360112610323576100ef6101019282359261006384610362565b60008051602061056583398151915254610087906001600160a01b03163314610378565b6001600160a01b038481169661009e8815156103da565b835163709bc7f360e01b81528290828186818d5afa908115610316575b8b916102f9575b5016151592836102a0575b83610247575b836101ee575b83610195575b83610128575b5050509050610483565b60008051602061056583398151915255565b7f3b1074392ed8e8424715d0dda2197eede67080b377fc8370e26f3e882207f6b88280a280f35b9193819350518092637f6e602960e11b8252818a5afa918215610188575b889261015b575b5050161515803880806100e5565b61017a9250803d10610181575b6101728183610426565b81019061045e565b388061014d565b503d610168565b610190610476565b610146565b92508184516361f8982560e01b8152828186818d5afa9081156101e1575b8b916101c4575b50161515926100df565b6101db9150833d8511610181576101728183610426565b386101ba565b6101e9610476565b6101b3565b9250818451639e3e7bb960e01b8152828186818d5afa90811561023a575b8b9161021d575b50161515926100d9565b6102349150833d8511610181576101728183610426565b38610213565b610242610476565b61020c565b9250818451631ee9ce8b60e01b8152828186818d5afa908115610293575b8b91610276575b50161515926100d3565b61028d9150833d8511610181576101728183610426565b3861026c565b61029b610476565b610265565b9250818451636ff6e83f60e01b8152828186818d5afa9081156102ec575b8b916102cf575b50161515926100cd565b6102e69150833d8511610181576101728183610426565b386102c5565b6102f4610476565b6102be565b6103109150833d8511610181576101728183610426565b386100c2565b61031e610476565b6100bb565b8380fd5b8280fd5b833461035f578060031936011261035f57600080516020610565833981519152546001600160a01b03166080908152602090f35b80fd5b6001600160a01b0381160361037357565b600080fd5b1561037f57565b60405162461bcd60e51b815260206004820152602d60248201527f6f6e6c792063757272656e7420696d706c656d656e746174696f6e417574686f60448201526c1c9a5d1e4818d85b8818d85b1b609a1b6064820152608490fd5b156103e157565b60405162461bcd60e51b815260206004820152601f60248201527f696e76616c696420617267756d656e74202d207a65726f2061646472657373006044820152606490fd5b90601f8019910116810190811067ffffffffffffffff82111761044857604052565b634e487b7160e01b600052604160045260246000fd5b90816020910312610373575161047381610362565b90565b506040513d6000823e3d90fd5b1561048a57565b606460405162461bcd60e51b815260206004820152602060248201527f696e76616c696420496d706c656d656e746174696f6e20417574686f726974796044820152fd5b506000805160206105658339815191525460405163709bc7f360e01b8152600091829190602090829060049082906001600160a01b03165afa908115610557575b8291610539575b503682803781369161270f195a01f43d90816000803e15610535576000f35b6000fd5b610551915060203d8111610181576101728183610426565b38610516565b61055f610476565b61050f56fe821f3e4d3d679f19eacc940c87acf846ea6eae24a63058ea750304437a62aafca2646970667358221220d6bd10b0734d65556c64b284ee37095d448070dbca65237f077448b5de9bc11d64736f6c6343000811003300000000000000000000000053ace7307b7dbf39f9fb5876fcfd3ac1fb07471e0000000000000000000000008a04fb4d545228639b3db0582332a3615a8e33e9000000000000000000000000868ad2ea05e0b39c0b92537e05b219b5d3d9cf2400000000000000000000000000000000000000000000000000000000000000e000000000000000000000000000000000000000000000000000000000000001200000000000000000000000000000000000000000000000000000000000000012000000000000000000000000000000000000000000000000000000000000000000000000000000000000000000000000000000000000000000000000000000194d79205265616c20576f726c6420417373657420546f6b656e0000000000000000000000000000000000000000000000000000000000000000000000000000045257415400000000000000000000000000000000000000000000000000000000"
        },
        {
          "transactionType": "CREATE2",
          "address": "0xa0344bf6ec3906f62b1e1829f57322d5c4936186",
          "initCode": "0x6080604090808252346101d457818161041f803803809161002082856101d9565b8339810103126101d457806004610039610046936101fc565b91602093848092016101fc565b6001600160a01b038481169161005d831515610210565b169361006a851515610210565b7f821f3e4d3d679f19eacc940c87acf846ea6eae24a63058ea750304437a62aafc55855163557887a160e11b815292839182905afa9081156101c957600091610191575b50835163189acdbd60e31b8482019081526024808301949094529281526001600160401b03929091606083019184831184841017610175576000938493885251915af4903d1561018b573d90811161017557835190610116601f8201601f19168501836101d9565b81526000833d92013e5b156101335750516101c2908161025d8239f35b606491519062461bcd60e51b82526004820152601660248201527f496e697469616c697a6174696f6e206661696c65642e000000000000000000006044820152fd5b634e487b7160e01b600052604160045260246000fd5b50610120565b908382813d83116101c2575b6101a781836101d9565b810103126101bf57506101b9906101fc565b386100ae565b80fd5b503d61019d565b84513d6000823e3d90fd5b600080fd5b601f909101601f19168101906001600160401b0382119082101761017557604052565b51906001600160a01b03821682036101d457565b1561021757565b60405162461bcd60e51b815260206004820152601f60248201527f696e76616c696420617267756d656e74202d207a65726f2061646472657373006044820152606490fdfe60808060405260043610156100c1575b7f821f3e4d3d679f19eacc940c87acf846ea6eae24a63058ea750304437a62aafc546000918291602090829060049082906001600160a01b031663557887a160e11b82525afa9081156100b4575b8291610087575b503682803781369161270f195a01f43d90816000803e15610083576000f35b6000fd5b6100a691506020903d82116100ac575b6100a08261011f565b01610158565b38610064565b3d9150610097565b6100bc61017f565b61005d565b6000803560e01c632307f882146100d8575061000f565b903461011b578160031936011261011b577f821f3e4d3d679f19eacc940c87acf846ea6eae24a63058ea750304437a62aafc546001600160a01b03168152602090f35b5080fd5b601f80199101166080016080811067ffffffffffffffff82111761014257604052565b634e487b7160e01b600052604160045260246000fd5b602090607f19011261017a576080516001600160a01b038116810361017a5790565b600080fd5b506040513d6000823e3d90fdfea26469706673582212205c46bf090f954d23fd507ccc51ea25cb6065c74e5730e2220d1361bdb7f6135564736f6c6343000811003300000000000000000000000090baf8fc42a2d5ece11152f9cc64e1c733928f230000000000000000000000000af700a3026adfddc10f7aa8ba2419e8503592f7"
        }
      ],
      "isFixedGasLimit": false
    }
  ],
  "receipts": [
    {
      "status": "0x1",
      "cumulativeGasUsed": "0x3562ed",
      "logs": [
        {
          "address": "0x37385a6fd022893b95698a2adc96e61b00772a94",
          "topics": [
            "0x3b1074392ed8e8424715d0dda2197eede67080b377fc8370e26f3e882207f6b8",
            "0x00000000000000000000000053ace7307b7dbf39f9fb5876fcfd3ac1fb07471e"
          ],
          "data": "0x",
          "blockHash": "0xb01ee1e4a76f22eef2196e487b7dd3ac9aa44978a87623dd785d5c1dc1ee09bd",
          "blockNumber": "0x18753ed",
          "transactionHash": "0x21b006ffb250b69550b611ad867e215d42ab877fd46150e77fb4007b5f9cc10f",
          "transactionIndex": "0x0",
          "logIndex": "0x0",
          "removed": false
        },
        {
          "address": "0x37385a6fd022893b95698a2adc96e61b00772a94",
          "topics": [
            "0x8be0079c531659141344cd1fd0a4f28419497f9722a3daafe3b4186f6b6457e0",
            "0x0000000000000000000000000000000000000000000000000000000000000000",
            "0x00000000000000000000000019c99c82512e85732d0f9c563e550bea00a04070"
          ],
          "data": "0x",
          "blockHash": "0xb01ee1e4a76f22eef2196e487b7dd3ac9aa44978a87623dd785d5c1dc1ee09bd",
          "blockNumber": "0x18753ed",
          "transactionHash": "0x21b006ffb250b69550b611ad867e215d42ab877fd46150e77fb4007b5f9cc10f",
          "transactionIndex": "0x0",
          "logIndex": "0x1",
          "removed": false
        },
        {
          "address": "0x37385a6fd022893b95698a2adc96e61b00772a94",
          "topics": [
            "0x7f26b83ff96e1f2b6a682f133852f6798a09c465da95921460cefb3847402498"
          ],
          "data": "0x0000000000000000000000000000000000000000000000000000000000000001",
          "blockHash": "0xb01ee1e4a76f22eef2196e487b7dd3ac9aa44978a87623dd785d5c1dc1ee09bd",
          "blockNumber": "0x18753ed",
          "transactionHash": "0x21b006ffb250b69550b611ad867e215d42ab877fd46150e77fb4007b5f9cc10f",
          "transactionIndex": "0x0",
          "logIndex": "0x2",
          "removed": false
        },
        {
          "address": "0x19c99c82512e85732d0f9c563e550bea00a04070",
          "topics": [
            "0xf40fcec21964ffb566044d083b4073f29f7f7929110ea19e1b3ebe375d89055e",
            "0x00000000000000000000000037385a6fd022893b95698a2adc96e61b00772a94"
          ],
          "data": "0x",
          "blockHash": "0xb01ee1e4a76f22eef2196e487b7dd3ac9aa44978a87623dd785d5c1dc1ee09bd",
          "blockNumber": "0x18753ed",
          "transactionHash": "0x21b006ffb250b69550b611ad867e215d42ab877fd46150e77fb4007b5f9cc10f",
          "transactionIndex": "0x0",
          "logIndex": "0x3",
          "removed": false
        },
        {
          "address": "0xb3c5b40afab0070fa6cbae52b54292da981c42b8",
          "topics": [
            "0x3b1074392ed8e8424715d0dda2197eede67080b377fc8370e26f3e882207f6b8",
            "0x00000000000000000000000053ace7307b7dbf39f9fb5876fcfd3ac1fb07471e"
          ],
          "data": "0x",
          "blockHash": "0xb01ee1e4a76f22eef2196e487b7dd3ac9aa44978a87623dd785d5c1dc1ee09bd",
          "blockNumber": "0x18753ed",
          "transactionHash": "0x21b006ffb250b69550b611ad867e215d42ab877fd46150e77fb4007b5f9cc10f",
          "transactionIndex": "0x0",
          "logIndex": "0x4",
          "removed": false
        },
        {
          "address": "0xb3c5b40afab0070fa6cbae52b54292da981c42b8",
          "topics": [
            "0x8be0079c531659141344cd1fd0a4f28419497f9722a3daafe3b4186f6b6457e0",
            "0x0000000000000000000000000000000000000000000000000000000000000000",
            "0x00000000000000000000000019c99c82512e85732d0f9c563e550bea00a04070"
          ],
          "data": "0x",
          "blockHash": "0xb01ee1e4a76f22eef2196e487b7dd3ac9aa44978a87623dd785d5c1dc1ee09bd",
          "blockNumber": "0x18753ed",
          "transactionHash": "0x21b006ffb250b69550b611ad867e215d42ab877fd46150e77fb4007b5f9cc10f",
          "transactionIndex": "0x0",
          "logIndex": "0x5",
          "removed": false
        },
        {
          "address": "0xb3c5b40afab0070fa6cbae52b54292da981c42b8",
          "topics": [
            "0x7f26b83ff96e1f2b6a682f133852f6798a09c465da95921460cefb3847402498"
          ],
          "data": "0x0000000000000000000000000000000000000000000000000000000000000001",
          "blockHash": "0xb01ee1e4a76f22eef2196e487b7dd3ac9aa44978a87623dd785d5c1dc1ee09bd",
          "blockNumber": "0x18753ed",
          "transactionHash": "0x21b006ffb250b69550b611ad867e215d42ab877fd46150e77fb4007b5f9cc10f",
          "transactionIndex": "0x0",
          "logIndex": "0x6",
          "removed": false
        },
        {
          "address": "0x19c99c82512e85732d0f9c563e550bea00a04070",
          "topics": [
            "0xf40fcec21964ffb566044d083b4073f29f7f7929110ea19e1b3ebe375d89055e",
            "0x000000000000000000000000b3c5b40afab0070fa6cbae52b54292da981c42b8"
          ],
          "data": "0x",
          "blockHash": "0xb01ee1e4a76f22eef2196e487b7dd3ac9aa44978a87623dd785d5c1dc1ee09bd",
          "blockNumber": "0x18753ed",
          "transactionHash": "0x21b006ffb250b69550b611ad867e215d42ab877fd46150e77fb4007b5f9cc10f",
          "transactionIndex": "0x0",
          "logIndex": "0x7",
          "removed": false
        },
        {
          "address": "0x868ad2ea05e0b39c0b92537e05b219b5d3d9cf24",
          "topics": [
            "0x3b1074392ed8e8424715d0dda2197eede67080b377fc8370e26f3e882207f6b8",
            "0x00000000000000000000000053ace7307b7dbf39f9fb5876fcfd3ac1fb07471e"
          ],
          "data": "0x",
          "blockHash": "0xb01ee1e4a76f22eef2196e487b7dd3ac9aa44978a87623dd785d5c1dc1ee09bd",
          "blockNumber": "0x18753ed",
          "transactionHash": "0x21b006ffb250b69550b611ad867e215d42ab877fd46150e77fb4007b5f9cc10f",
          "transactionIndex": "0x0",
          "logIndex": "0x8",
          "removed": false
        },
        {
          "address": "0x868ad2ea05e0b39c0b92537e05b219b5d3d9cf24",
          "topics": [
            "0x8be0079c531659141344cd1fd0a4f28419497f9722a3daafe3b4186f6b6457e0",
            "0x0000000000000000000000000000000000000000000000000000000000000000",
            "0x00000000000000000000000019c99c82512e85732d0f9c563e550bea00a04070"
          ],
          "data": "0x",
          "blockHash": "0xb01ee1e4a76f22eef2196e487b7dd3ac9aa44978a87623dd785d5c1dc1ee09bd",
          "blockNumber": "0x18753ed",
          "transactionHash": "0x21b006ffb250b69550b611ad867e215d42ab877fd46150e77fb4007b5f9cc10f",
          "transactionIndex": "0x0",
          "logIndex": "0x9",
          "removed": false
        },
        {
          "address": "0x868ad2ea05e0b39c0b92537e05b219b5d3d9cf24",
          "topics": [
            "0x7f26b83ff96e1f2b6a682f133852f6798a09c465da95921460cefb3847402498"
          ],
          "data": "0x0000000000000000000000000000000000000000000000000000000000000001",
          "blockHash": "0xb01ee1e4a76f22eef2196e487b7dd3ac9aa44978a87623dd785d5c1dc1ee09bd",
          "blockNumber": "0x18753ed",
          "transactionHash": "0x21b006ffb250b69550b611ad867e215d42ab877fd46150e77fb4007b5f9cc10f",
          "transactionIndex": "0x0",
          "logIndex": "0xa",
          "removed": false
        },
        {
          "address": "0x19c99c82512e85732d0f9c563e550bea00a04070",
          "topics": [
            "0xf40fcec21964ffb566044d083b4073f29f7f7929110ea19e1b3ebe375d89055e",
            "0x000000000000000000000000868ad2ea05e0b39c0b92537e05b219b5d3d9cf24"
          ],
          "data": "0x",
          "blockHash": "0xb01ee1e4a76f22eef2196e487b7dd3ac9aa44978a87623dd785d5c1dc1ee09bd",
          "blockNumber": "0x18753ed",
          "transactionHash": "0x21b006ffb250b69550b611ad867e215d42ab877fd46150e77fb4007b5f9cc10f",
          "transactionIndex": "0x0",
          "logIndex": "0xb",
          "removed": false
        },
        {
          "address": "0xff99b40f3e3bd39b3c7f3ca4a0e3a4518e6d4a9a",
          "topics": [
            "0x3b1074392ed8e8424715d0dda2197eede67080b377fc8370e26f3e882207f6b8",
            "0x00000000000000000000000053ace7307b7dbf39f9fb5876fcfd3ac1fb07471e"
          ],
          "data": "0x",
          "blockHash": "0xb01ee1e4a76f22eef2196e487b7dd3ac9aa44978a87623dd785d5c1dc1ee09bd",
          "blockNumber": "0x18753ed",
          "transactionHash": "0x21b006ffb250b69550b611ad867e215d42ab877fd46150e77fb4007b5f9cc10f",
          "transactionIndex": "0x0",
          "logIndex": "0xc",
          "removed": false
        },
        {
          "address": "0xff99b40f3e3bd39b3c7f3ca4a0e3a4518e6d4a9a",
          "topics": [
            "0x8be0079c531659141344cd1fd0a4f28419497f9722a3daafe3b4186f6b6457e0",
            "0x0000000000000000000000000000000000000000000000000000000000000000",
            "0x00000000000000000000000019c99c82512e85732d0f9c563e550bea00a04070"
          ],
          "data": "0x",
          "blockHash": "0xb01ee1e4a76f22eef2196e487b7dd3ac9aa44978a87623dd785d5c1dc1ee09bd",
          "blockNumber": "0x18753ed",
          "transactionHash": "0x21b006ffb250b69550b611ad867e215d42ab877fd46150e77fb4007b5f9cc10f",
          "transactionIndex": "0x0",
          "logIndex": "0xd",
          "removed": false
        },
        {
          "address": "0xff99b40f3e3bd39b3c7f3ca4a0e3a4518e6d4a9a",
          "topics": [
            "0x7f26b83ff96e1f2b6a682f133852f6798a09c465da95921460cefb3847402498"
          ],
          "data": "0x0000000000000000000000000000000000000000000000000000000000000001",
          "blockHash": "0xb01ee1e4a76f22eef2196e487b7dd3ac9aa44978a87623dd785d5c1dc1ee09bd",
          "blockNumber": "0x18753ed",
          "transactionHash": "0x21b006ffb250b69550b611ad867e215d42ab877fd46150e77fb4007b5f9cc10f",
          "transactionIndex": "0x0",
          "logIndex": "0xe",
          "removed": false
        },
        {
          "address": "0x19c99c82512e85732d0f9c563e550bea00a04070",
          "topics": [
            "0xf40fcec21964ffb566044d083b4073f29f7f7929110ea19e1b3ebe375d89055e",
            "0x000000000000000000000000ff99b40f3e3bd39b3c7f3ca4a0e3a4518e6d4a9a"
          ],
          "data": "0x",
          "blockHash": "0xb01ee1e4a76f22eef2196e487b7dd3ac9aa44978a87623dd785d5c1dc1ee09bd",
          "blockNumber": "0x18753ed",
          "transactionHash": "0x21b006ffb250b69550b611ad867e215d42ab877fd46150e77fb4007b5f9cc10f",
          "transactionIndex": "0x0",
          "logIndex": "0xf",
          "removed": false
        },
        {
          "address": "0x8a04fb4d545228639b3db0582332a3615a8e33e9",
          "topics": [
            "0x3b1074392ed8e8424715d0dda2197eede67080b377fc8370e26f3e882207f6b8",
            "0x00000000000000000000000053ace7307b7dbf39f9fb5876fcfd3ac1fb07471e"
          ],
          "data": "0x",
          "blockHash": "0xb01ee1e4a76f22eef2196e487b7dd3ac9aa44978a87623dd785d5c1dc1ee09bd",
          "blockNumber": "0x18753ed",
          "transactionHash": "0x21b006ffb250b69550b611ad867e215d42ab877fd46150e77fb4007b5f9cc10f",
          "transactionIndex": "0x0",
          "logIndex": "0x10",
          "removed": false
        },
        {
          "address": "0x8a04fb4d545228639b3db0582332a3615a8e33e9",
          "topics": [
            "0x7170bf15b246e880b2369cd7c67d057760d8a35149e8c64dde91efa22bcc76d0",
            "0x000000000000000000000000b3c5b40afab0070fa6cbae52b54292da981c42b8"
          ],
          "data": "0x",
          "blockHash": "0xb01ee1e4a76f22eef2196e487b7dd3ac9aa44978a87623dd785d5c1dc1ee09bd",
          "blockNumber": "0x18753ed",
          "transactionHash": "0x21b006ffb250b69550b611ad867e215d42ab877fd46150e77fb4007b5f9cc10f",
          "transactionIndex": "0x0",
          "logIndex": "0x11",
          "removed": false
        },
        {
          "address": "0x8a04fb4d545228639b3db0582332a3615a8e33e9",
          "topics": [
            "0x1b98cb79e6f73020175fe87333f1b91ad6a881519c0afe30340c2599b2b4bde0",
            "0x00000000000000000000000037385a6fd022893b95698a2adc96e61b00772a94"
          ],
          "data": "0x",
          "blockHash": "0xb01ee1e4a76f22eef2196e487b7dd3ac9aa44978a87623dd785d5c1dc1ee09bd",
          "blockNumber": "0x18753ed",
          "transactionHash": "0x21b006ffb250b69550b611ad867e215d42ab877fd46150e77fb4007b5f9cc10f",
          "transactionIndex": "0x0",
          "logIndex": "0x12",
          "removed": false
        },
        {
          "address": "0x8a04fb4d545228639b3db0582332a3615a8e33e9",
          "topics": [
            "0x2fa8b95c1db7afe99e3398f3792f008135cedc1fa26b0bb2ecd2352cd166d53c",
            "0x000000000000000000000000ff99b40f3e3bd39b3c7f3ca4a0e3a4518e6d4a9a"
          ],
          "data": "0x",
          "blockHash": "0xb01ee1e4a76f22eef2196e487b7dd3ac9aa44978a87623dd785d5c1dc1ee09bd",
          "blockNumber": "0x18753ed",
          "transactionHash": "0x21b006ffb250b69550b611ad867e215d42ab877fd46150e77fb4007b5f9cc10f",
          "transactionIndex": "0x0",
          "logIndex": "0x13",
          "removed": false
        },
        {
          "address": "0x8a04fb4d545228639b3db0582332a3615a8e33e9",
          "topics": [
            "0x8be0079c531659141344cd1fd0a4f28419497f9722a3daafe3b4186f6b6457e0",
            "0x0000000000000000000000000000000000000000000000000000000000000000",
            "0x00000000000000000000000019c99c82512e85732d0f9c563e550bea00a04070"
          ],
          "data": "0x",
          "blockHash": "0xb01ee1e4a76f22eef2196e487b7dd3ac9aa44978a87623dd785d5c1dc1ee09bd",
          "blockNumber": "0x18753ed",
          "transactionHash": "0x21b006ffb250b69550b611ad867e215d42ab877fd46150e77fb4007b5f9cc10f",
          "transactionIndex": "0x0",
          "logIndex": "0x14",
          "removed": false
        },
        {
          "address": "0x8a04fb4d545228639b3db0582332a3615a8e33e9",
          "topics": [
            "0x7f26b83ff96e1f2b6a682f133852f6798a09c465da95921460cefb3847402498"
          ],
          "data": "0x0000000000000000000000000000000000000000000000000000000000000001",
          "blockHash": "0xb01ee1e4a76f22eef2196e487b7dd3ac9aa44978a87623dd785d5c1dc1ee09bd",
          "blockNumber": "0x18753ed",
          "transactionHash": "0x21b006ffb250b69550b611ad867e215d42ab877fd46150e77fb4007b5f9cc10f",
          "transactionIndex": "0x0",
          "logIndex": "0x15",
          "removed": false
        },
        {
          "address": "0x19c99c82512e85732d0f9c563e550bea00a04070",
          "topics": [
            "0xf40fcec21964ffb566044d083b4073f29f7f7929110ea19e1b3ebe375d89055e",
            "0x0000000000000000000000008a04fb4d545228639b3db0582332a3615a8e33e9"
          ],
          "data": "0x",
          "blockHash": "0xb01ee1e4a76f22eef2196e487b7dd3ac9aa44978a87623dd785d5c1dc1ee09bd",
          "blockNumber": "0x18753ed",
          "transactionHash": "0x21b006ffb250b69550b611ad867e215d42ab877fd46150e77fb4007b5f9cc10f",
          "transactionIndex": "0x0",
          "logIndex": "0x16",
          "removed": false
        },
        {
          "address": "0x5bc71a4b1dbda3d7605268103e4676df5b807f57",
          "topics": [
            "0x3b1074392ed8e8424715d0dda2197eede67080b377fc8370e26f3e882207f6b8",
            "0x00000000000000000000000053ace7307b7dbf39f9fb5876fcfd3ac1fb07471e"
          ],
          "data": "0x",
          "blockHash": "0xb01ee1e4a76f22eef2196e487b7dd3ac9aa44978a87623dd785d5c1dc1ee09bd",
          "blockNumber": "0x18753ed",
          "transactionHash": "0x21b006ffb250b69550b611ad867e215d42ab877fd46150e77fb4007b5f9cc10f",
          "transactionIndex": "0x0",
          "logIndex": "0x17",
          "removed": false
        },
        {
          "address": "0x5bc71a4b1dbda3d7605268103e4676df5b807f57",
          "topics": [
            "0x8be0079c531659141344cd1fd0a4f28419497f9722a3daafe3b4186f6b6457e0",
            "0x0000000000000000000000000000000000000000000000000000000000000000",
            "0x00000000000000000000000019c99c82512e85732d0f9c563e550bea00a04070"
          ],
          "data": "0x",
          "blockHash": "0xb01ee1e4a76f22eef2196e487b7dd3ac9aa44978a87623dd785d5c1dc1ee09bd",
          "blockNumber": "0x18753ed",
          "transactionHash": "0x21b006ffb250b69550b611ad867e215d42ab877fd46150e77fb4007b5f9cc10f",
          "transactionIndex": "0x0",
          "logIndex": "0x18",
          "removed": false
        },
        {
          "address": "0x5bc71a4b1dbda3d7605268103e4676df5b807f57",
          "topics": [
            "0xd2be862d755bca7e0d39772b2cab3a5578da9c285f69199f4c063c2294a7f36c",
            "0x0000000000000000000000008a04fb4d545228639b3db0582332a3615a8e33e9"
          ],
          "data": "0x",
          "blockHash": "0xb01ee1e4a76f22eef2196e487b7dd3ac9aa44978a87623dd785d5c1dc1ee09bd",
          "blockNumber": "0x18753ed",
          "transactionHash": "0x21b006ffb250b69550b611ad867e215d42ab877fd46150e77fb4007b5f9cc10f",
          "transactionIndex": "0x0",
          "logIndex": "0x19",
          "removed": false
        },
        {
          "address": "0x868ad2ea05e0b39c0b92537e05b219b5d3d9cf24",
          "topics": [
            "0x2de35142b19ed5a07796cf30791959c592018f70b1d2d7c460eef8ffe713692b"
          ],
          "data": "0x0000000000000000000000005bc71a4b1dbda3d7605268103e4676df5b807f57",
          "blockHash": "0xb01ee1e4a76f22eef2196e487b7dd3ac9aa44978a87623dd785d5c1dc1ee09bd",
          "blockNumber": "0x18753ed",
          "transactionHash": "0x21b006ffb250b69550b611ad867e215d42ab877fd46150e77fb4007b5f9cc10f",
          "transactionIndex": "0x0",
          "logIndex": "0x1a",
          "removed": false
        },
        {
          "address": "0x5bc71a4b1dbda3d7605268103e4676df5b807f57",
          "topics": [
            "0x7f3a888862559648ec01d97deb7b5012bff86dc91e654a1de397170db40e35b6",
            "0x000000000000000000000000868ad2ea05e0b39c0b92537e05b219b5d3d9cf24"
          ],
          "data": "0x",
          "blockHash": "0xb01ee1e4a76f22eef2196e487b7dd3ac9aa44978a87623dd785d5c1dc1ee09bd",
          "blockNumber": "0x18753ed",
          "transactionHash": "0x21b006ffb250b69550b611ad867e215d42ab877fd46150e77fb4007b5f9cc10f",
          "transactionIndex": "0x0",
          "logIndex": "0x1b",
          "removed": false
        },
        {
          "address": "0x5bc71a4b1dbda3d7605268103e4676df5b807f57",
          "topics": [
            "0x6a1105ac8148a3c319adbc369f9072573e8a11d3a3d195e067e7c40767ec54d1",
            "0x84734c9290147d84e4af725f1457655ac9adc6ece76580c50ecb07bbb97cb458",
            "0x5c2db14503a8ed5880c387ba6fa64e6625a0e0333fc496d0a22c7258892f36fe",
            "0x0000000000000000000000000000000000000000000000000000000000000000"
          ],
          "data": "0x000000000000000000000000000000000000000000000000000000000000001200000000000000000000000000000000000000000000000000000000000000400000000000000000000000000000000000000000000000000000000000000005342e312e33000000000000000000000000000000000000000000000000000000",
          "blockHash": "0xb01ee1e4a76f22eef2196e487b7dd3ac9aa44978a87623dd785d5c1dc1ee09bd",
          "blockNumber": "0x18753ed",
          "transactionHash": "0x21b006ffb250b69550b611ad867e215d42ab877fd46150e77fb4007b5f9cc10f",
          "transactionIndex": "0x0",
          "logIndex": "0x1c",
          "removed": false
        },
        {
          "address": "0x5bc71a4b1dbda3d7605268103e4676df5b807f57",
          "topics": [
            "0x7f26b83ff96e1f2b6a682f133852f6798a09c465da95921460cefb3847402498"
          ],
          "data": "0x0000000000000000000000000000000000000000000000000000000000000001",
          "blockHash": "0xb01ee1e4a76f22eef2196e487b7dd3ac9aa44978a87623dd785d5c1dc1ee09bd",
          "blockNumber": "0x18753ed",
          "transactionHash": "0x21b006ffb250b69550b611ad867e215d42ab877fd46150e77fb4007b5f9cc10f",
          "transactionIndex": "0x0",
          "logIndex": "0x1d",
          "removed": false
        },
        {
          "address": "0x19c99c82512e85732d0f9c563e550bea00a04070",
          "topics": [
            "0xf40fcec21964ffb566044d083b4073f29f7f7929110ea19e1b3ebe375d89055e",
            "0x0000000000000000000000005bc71a4b1dbda3d7605268103e4676df5b807f57"
          ],
          "data": "0x",
          "blockHash": "0xb01ee1e4a76f22eef2196e487b7dd3ac9aa44978a87623dd785d5c1dc1ee09bd",
          "blockNumber": "0x18753ed",
          "transactionHash": "0x21b006ffb250b69550b611ad867e215d42ab877fd46150e77fb4007b5f9cc10f",
          "transactionIndex": "0x0",
          "logIndex": "0x1e",
          "removed": false
        },
        {
          "address": "0xa0344bf6ec3906f62b1e1829f57322d5c4936186",
          "topics": [
            "0x480000bb1edad8ca1470381cc334b1917fbd51c6531f3a623ea8e0ec7e38a6e9",
            "0x434a13f61f3856e74020edf54bd00b647e8634d4f2227a292fb72ce617762ecb",
            "0x0000000000000000000000000000000000000000000000000000000000000001",
            "0x0000000000000000000000000000000000000000000000000000000000000001"
          ],
          "data": "0x",
          "blockHash": "0xb01ee1e4a76f22eef2196e487b7dd3ac9aa44978a87623dd785d5c1dc1ee09bd",
          "blockNumber": "0x18753ed",
          "transactionHash": "0x21b006ffb250b69550b611ad867e215d42ab877fd46150e77fb4007b5f9cc10f",
          "transactionIndex": "0x0",
          "logIndex": "0x1f",
          "removed": false
        },
        {
          "address": "0x39992cceaedb0fa8f4fd3f2fbc5134707635b371",
          "topics": [
            "0xf40fcec21964ffb566044d083b4073f29f7f7929110ea19e1b3ebe375d89055e",
            "0x000000000000000000000000a0344bf6ec3906f62b1e1829f57322d5c4936186"
          ],
          "data": "0x",
          "blockHash": "0xb01ee1e4a76f22eef2196e487b7dd3ac9aa44978a87623dd785d5c1dc1ee09bd",
          "blockNumber": "0x18753ed",
          "transactionHash": "0x21b006ffb250b69550b611ad867e215d42ab877fd46150e77fb4007b5f9cc10f",
          "transactionIndex": "0x0",
          "logIndex": "0x20",
          "removed": false
        },
        {
          "address": "0x39992cceaedb0fa8f4fd3f2fbc5134707635b371",
          "topics": [
            "0xa8261d398ddc63db24cc53cd0c63c9464cabad1bc478ede2107b32c1c4010b7a",
            "0x0000000000000000000000005bc71a4b1dbda3d7605268103e4676df5b807f57",
            "0x000000000000000000000000a0344bf6ec3906f62b1e1829f57322d5c4936186"
          ],
          "data": "0x",
          "blockHash": "0xb01ee1e4a76f22eef2196e487b7dd3ac9aa44978a87623dd785d5c1dc1ee09bd",
          "blockNumber": "0x18753ed",
          "transactionHash": "0x21b006ffb250b69550b611ad867e215d42ab877fd46150e77fb4007b5f9cc10f",
          "transactionIndex": "0x0",
          "logIndex": "0x21",
          "removed": false
        },
        {
          "address": "0x5bc71a4b1dbda3d7605268103e4676df5b807f57",
          "topics": [
            "0x6a1105ac8148a3c319adbc369f9072573e8a11d3a3d195e067e7c40767ec54d1",
            "0x84734c9290147d84e4af725f1457655ac9adc6ece76580c50ecb07bbb97cb458",
            "0x5c2db14503a8ed5880c387ba6fa64e6625a0e0333fc496d0a22c7258892f36fe",
            "0x000000000000000000000000a0344bf6ec3906f62b1e1829f57322d5c4936186"
          ],
          "data": "0x000000000000000000000000000000000000000000000000000000000000001200000000000000000000000000000000000000000000000000000000000000400000000000000000000000000000000000000000000000000000000000000005342e312e33000000000000000000000000000000000000000000000000000000",
          "blockHash": "0xb01ee1e4a76f22eef2196e487b7dd3ac9aa44978a87623dd785d5c1dc1ee09bd",
          "blockNumber": "0x18753ed",
          "transactionHash": "0x21b006ffb250b69550b611ad867e215d42ab877fd46150e77fb4007b5f9cc10f",
          "transactionIndex": "0x0",
          "logIndex": "0x22",
          "removed": false
        },
        {
          "address": "0xb3c5b40afab0070fa6cbae52b54292da981c42b8",
          "topics": [
            "0x01c928b7f7ade2949e92366aa9454dbef3a416b731cf6ec786ba9595bbd814d6",
            "0x0000000000000000000000000000000000000000000000000000000000000000"
          ],
          "data": "0x",
          "blockHash": "0xb01ee1e4a76f22eef2196e487b7dd3ac9aa44978a87623dd785d5c1dc1ee09bd",
          "blockNumber": "0x18753ed",
          "transactionHash": "0x21b006ffb250b69550b611ad867e215d42ab877fd46150e77fb4007b5f9cc10f",
          "transactionIndex": "0x0",
          "logIndex": "0x23",
          "removed": false
        },
        {
          "address": "0x37385a6fd022893b95698a2adc96e61b00772a94",
          "topics": [
            "0xfedc33fd34859594822c0ff6f3f4f9fc279cc6d5cae53068f706a088e4500872",
            "0x0000000000000000000000000af700a3026adfddc10f7aa8ba2419e8503592f7"
          ],
          "data": "0x000000000000000000000000000000000000000000000000000000000000002000000000000000000000000000000000000000000000000000000000000000010000000000000000000000000000000000000000000000000000000000000000",
          "blockHash": "0xb01ee1e4a76f22eef2196e487b7dd3ac9aa44978a87623dd785d5c1dc1ee09bd",
          "blockNumber": "0x18753ed",
          "transactionHash": "0x21b006ffb250b69550b611ad867e215d42ab877fd46150e77fb4007b5f9cc10f",
          "transactionIndex": "0x0",
          "logIndex": "0x24",
          "removed": false
        },
        {
          "address": "0xff99b40f3e3bd39b3c7f3ca4a0e3a4518e6d4a9a",
          "topics": [
            "0xf68e73cec97f2d70aa641fb26e87a4383686e2efacb648f2165aeb02ac562ec5",
            "0x0000000000000000000000008a04fb4d545228639b3db0582332a3615a8e33e9"
          ],
          "data": "0x",
          "blockHash": "0xb01ee1e4a76f22eef2196e487b7dd3ac9aa44978a87623dd785d5c1dc1ee09bd",
          "blockNumber": "0x18753ed",
          "transactionHash": "0x21b006ffb250b69550b611ad867e215d42ab877fd46150e77fb4007b5f9cc10f",
          "transactionIndex": "0x0",
          "logIndex": "0x25",
          "removed": false
        },
        {
          "address": "0xff99b40f3e3bd39b3c7f3ca4a0e3a4518e6d4a9a",
          "topics": [
            "0x500c250171aa20e861b680f93502547b9d436eda7d4c537fc360db6e0c6eedfb",
            "0x0000000000000000000000008a04fb4d545228639b3db0582332a3615a8e33e9"
          ],
          "data": "0x",
          "blockHash": "0xb01ee1e4a76f22eef2196e487b7dd3ac9aa44978a87623dd785d5c1dc1ee09bd",
          "blockNumber": "0x18753ed",
          "transactionHash": "0x21b006ffb250b69550b611ad867e215d42ab877fd46150e77fb4007b5f9cc10f",
          "transactionIndex": "0x0",
          "logIndex": "0x26",
          "removed": false
        },
        {
          "address": "0x8a04fb4d545228639b3db0582332a3615a8e33e9",
          "topics": [
            "0xf68e73cec97f2d70aa641fb26e87a4383686e2efacb648f2165aeb02ac562ec5",
            "0x0000000000000000000000005bc71a4b1dbda3d7605268103e4676df5b807f57"
          ],
          "data": "0x",
          "blockHash": "0xb01ee1e4a76f22eef2196e487b7dd3ac9aa44978a87623dd785d5c1dc1ee09bd",
          "blockNumber": "0x18753ed",
          "transactionHash": "0x21b006ffb250b69550b611ad867e215d42ab877fd46150e77fb4007b5f9cc10f",
          "transactionIndex": "0x0",
          "logIndex": "0x27",
          "removed": false
        },
        {
          "address": "0x8a04fb4d545228639b3db0582332a3615a8e33e9",
          "topics": [
            "0xf68e73cec97f2d70aa641fb26e87a4383686e2efacb648f2165aeb02ac562ec5",
            "0x0000000000000000000000000af700a3026adfddc10f7aa8ba2419e8503592f7"
          ],
          "data": "0x",
          "blockHash": "0xb01ee1e4a76f22eef2196e487b7dd3ac9aa44978a87623dd785d5c1dc1ee09bd",
          "blockNumber": "0x18753ed",
          "transactionHash": "0x21b006ffb250b69550b611ad867e215d42ab877fd46150e77fb4007b5f9cc10f",
          "transactionIndex": "0x0",
          "logIndex": "0x28",
          "removed": false
        },
        {
          "address": "0x5bc71a4b1dbda3d7605268103e4676df5b807f57",
          "topics": [
            "0xf68e73cec97f2d70aa641fb26e87a4383686e2efacb648f2165aeb02ac562ec5",
            "0x0000000000000000000000000af700a3026adfddc10f7aa8ba2419e8503592f7"
          ],
          "data": "0x",
          "blockHash": "0xb01ee1e4a76f22eef2196e487b7dd3ac9aa44978a87623dd785d5c1dc1ee09bd",
          "blockNumber": "0x18753ed",
          "transactionHash": "0x21b006ffb250b69550b611ad867e215d42ab877fd46150e77fb4007b5f9cc10f",
          "transactionIndex": "0x0",
          "logIndex": "0x29",
          "removed": false
        },
        {
          "address": "0x5bc71a4b1dbda3d7605268103e4676df5b807f57",
          "topics": [
            "0x8be0079c531659141344cd1fd0a4f28419497f9722a3daafe3b4186f6b6457e0",
            "0x00000000000000000000000019c99c82512e85732d0f9c563e550bea00a04070",
            "0x0000000000000000000000000af700a3026adfddc10f7aa8ba2419e8503592f7"
          ],
          "data": "0x",
          "blockHash": "0xb01ee1e4a76f22eef2196e487b7dd3ac9aa44978a87623dd785d5c1dc1ee09bd",
          "blockNumber": "0x18753ed",
          "transactionHash": "0x21b006ffb250b69550b611ad867e215d42ab877fd46150e77fb4007b5f9cc10f",
          "transactionIndex": "0x0",
          "logIndex": "0x2a",
          "removed": false
        },
        {
          "address": "0x8a04fb4d545228639b3db0582332a3615a8e33e9",
          "topics": [
            "0x8be0079c531659141344cd1fd0a4f28419497f9722a3daafe3b4186f6b6457e0",
            "0x00000000000000000000000019c99c82512e85732d0f9c563e550bea00a04070",
            "0x0000000000000000000000000af700a3026adfddc10f7aa8ba2419e8503592f7"
          ],
          "data": "0x",
          "blockHash": "0xb01ee1e4a76f22eef2196e487b7dd3ac9aa44978a87623dd785d5c1dc1ee09bd",
          "blockNumber": "0x18753ed",
          "transactionHash": "0x21b006ffb250b69550b611ad867e215d42ab877fd46150e77fb4007b5f9cc10f",
          "transactionIndex": "0x0",
          "logIndex": "0x2b",
          "removed": false
        },
        {
          "address": "0x37385a6fd022893b95698a2adc96e61b00772a94",
          "topics": [
            "0x8be0079c531659141344cd1fd0a4f28419497f9722a3daafe3b4186f6b6457e0",
            "0x00000000000000000000000019c99c82512e85732d0f9c563e550bea00a04070",
            "0x0000000000000000000000000af700a3026adfddc10f7aa8ba2419e8503592f7"
          ],
          "data": "0x",
          "blockHash": "0xb01ee1e4a76f22eef2196e487b7dd3ac9aa44978a87623dd785d5c1dc1ee09bd",
          "blockNumber": "0x18753ed",
          "transactionHash": "0x21b006ffb250b69550b611ad867e215d42ab877fd46150e77fb4007b5f9cc10f",
          "transactionIndex": "0x0",
          "logIndex": "0x2c",
          "removed": false
        },
        {
          "address": "0xb3c5b40afab0070fa6cbae52b54292da981c42b8",
          "topics": [
            "0x8be0079c531659141344cd1fd0a4f28419497f9722a3daafe3b4186f6b6457e0",
            "0x00000000000000000000000019c99c82512e85732d0f9c563e550bea00a04070",
            "0x0000000000000000000000000af700a3026adfddc10f7aa8ba2419e8503592f7"
          ],
          "data": "0x",
          "blockHash": "0xb01ee1e4a76f22eef2196e487b7dd3ac9aa44978a87623dd785d5c1dc1ee09bd",
          "blockNumber": "0x18753ed",
          "transactionHash": "0x21b006ffb250b69550b611ad867e215d42ab877fd46150e77fb4007b5f9cc10f",
          "transactionIndex": "0x0",
          "logIndex": "0x2d",
          "removed": false
        },
        {
          "address": "0x868ad2ea05e0b39c0b92537e05b219b5d3d9cf24",
          "topics": [
            "0x8be0079c531659141344cd1fd0a4f28419497f9722a3daafe3b4186f6b6457e0",
            "0x00000000000000000000000019c99c82512e85732d0f9c563e550bea00a04070",
            "0x0000000000000000000000000af700a3026adfddc10f7aa8ba2419e8503592f7"
          ],
          "data": "0x",
          "blockHash": "0xb01ee1e4a76f22eef2196e487b7dd3ac9aa44978a87623dd785d5c1dc1ee09bd",
          "blockNumber": "0x18753ed",
          "transactionHash": "0x21b006ffb250b69550b611ad867e215d42ab877fd46150e77fb4007b5f9cc10f",
          "transactionIndex": "0x0",
          "logIndex": "0x2e",
          "removed": false
        },
        {
          "address": "0x19c99c82512e85732d0f9c563e550bea00a04070",
          "topics": [
            "0x057adae5fa3e9caa8a0d584edff60f61558d33f073412ec2d66d558b739e0a41",
            "0x0000000000000000000000005bc71a4b1dbda3d7605268103e4676df5b807f57",
            "0xa26527293a88da60895ba2b93fbe58efb0dc22c9e599f1080984ccff8d8b7fa4"
          ],
          "data": "0x0000000000000000000000008a04fb4d545228639b3db0582332a3615a8e33e9000000000000000000000000ff99b40f3e3bd39b3c7f3ca4a0e3a4518e6d4a9a00000000000000000000000037385a6fd022893b95698a2adc96e61b00772a94000000000000000000000000b3c5b40afab0070fa6cbae52b54292da981c42b8000000000000000000000000868ad2ea05e0b39c0b92537e05b219b5d3d9cf24",
          "blockHash": "0xb01ee1e4a76f22eef2196e487b7dd3ac9aa44978a87623dd785d5c1dc1ee09bd",
          "blockNumber": "0x18753ed",
          "transactionHash": "0x21b006ffb250b69550b611ad867e215d42ab877fd46150e77fb4007b5f9cc10f",
          "transactionIndex": "0x0",
          "logIndex": "0x2f",
          "removed": false
        },
        {
          "address": "0x0000000000000000000000000000000000001010",
          "topics": [
            "0x4dfe1bbbcf077ddc3e01291eea2d5c70c2b422b415d95645b9adcfd678cb1d63",
            "0x0000000000000000000000000000000000000000000000000000000000001010",
            "0x0000000000000000000000000af700a3026adfddc10f7aa8ba2419e8503592f7",
            "0x0000000000000000000000006dc2dd54f24979ec26212794c71afefed722280c"
          ],
          "data": "0x00000000000000000000000000000000000000000000000009b5ffd338a637ad0000000000000000000000000000000000000000000000033410bdc0055546d800000000000000000000000000000000000000000000094282a64018fcebd9740000000000000000000000000000000000000000000000032a5abdecccaf0f2b0000000000000000000000000000000000000000000009428c5c3fec35921121",
          "blockHash": "0xb01ee1e4a76f22eef2196e487b7dd3ac9aa44978a87623dd785d5c1dc1ee09bd",
          "blockNumber": "0x18753ed",
          "transactionHash": "0x21b006ffb250b69550b611ad867e215d42ab877fd46150e77fb4007b5f9cc10f",
          "transactionIndex": "0x0",
          "logIndex": "0x30",
          "removed": false
        }
      ],
      "logsBloom": "0x00801000200600000000008040000000000000004000000001800000c00000000000048008000042082000002003020200518000000000000000000000040804111200002000000000010108000020a00005001001040000010108480010010010020000020000000000d00010000800880000401000080080010104400000420040000000200000000008000050048020000180000084480000000000001404a04100000200000000000020100400800000000000001004000410004002904000000000000000000001080900040002000000000000400000982080200060400000000000010010008000004080000048000008804000000000040000100000",
      "type": "0x2",
      "transactionHash": "0x21b006ffb250b69550b611ad867e215d42ab877fd46150e77fb4007b5f9cc10f",
      "transactionIndex": "0x0",
      "blockHash": "0xb01ee1e4a76f22eef2196e487b7dd3ac9aa44978a87623dd785d5c1dc1ee09bd",
      "blockNumber": "0x18753ed",
      "gasUsed": "0x3562ed",
      "effectiveGasPrice": "0x2e90edd000",
      "from": "0x0af700a3026adfddc10f7aa8ba2419e8503592f7",
      "to": "0x19c99c82512e85732d0f9c563e550bea00a04070",
      "contractAddress": null
    }
  ],
  "libraries": [],
  "pending": [],
  "returns": {},
  "timestamp": 1756244807724,
  "chain": 80002,
  "commit": "3dcb0a3"
}