{
  "transactions": [
    {
      "hash": "0x246b30cc89a54278f48d014ec3d48558b3e232edb5b669daee60137bd7d9ed2b",
      "transactionType": "CALL",
      "contractName": null,
      "contractAddress": "0xa5d4d189939e1f8ac1e8d329273dc345554fcc95",
      "function": "whitelistIdentity(address,address)",
      "arguments": [
        "0x711aD193a98f0cef86dA4ad5312092772F39a869",
        "0x594524233943AF4F3CFfe5DcFfdA005A6F016bC8"
      ],
      "transaction": {
        "from": "0x0af700a3026adfddc10f7aa8ba2419e8503592f7",
        "to": "0xa5d4d189939e1f8ac1e8d329273dc345554fcc95",
        "gas": "0x10942",
        "value": "0x0",
        "input": "0x7c6e0d3f000000000000000000000000711ad193a98f0cef86da4ad5312092772f39a869000000000000000000000000594524233943af4f3cffe5dcffda005a6f016bc8",
        "nonce": "0x16c",
        "chainId": "0x13882"
      },
      "additionalContracts": [],
      "isFixedGasLimit": false
    }
  ],
  "receipts": [
    {
      "status": "0x1",
      "cumulativeGasUsed": "0xc00c",
      "logs": [
        {
          "address": "0x0000000000000000000000000000000000001010",
          "topics": [
            "0x4dfe1bbbcf077ddc3e01291eea2d5c70c2b422b415d95645b9adcfd678cb1d63",
            "0x0000000000000000000000000000000000000000000000000000000000001010",
            "0x0000000000000000000000000af700a3026adfddc10f7aa8ba2419e8503592f7",
            "0x0000000000000000000000004ca9ff871c7aa1e7b64e1eae110835f68d6a0bd4"
          ],
          "data": "0x0000000000000000000000000000000000000000000000000009883b7b6e93e8000000000000000000000000000000000000000000000002cee631f6e5aa7c6b0000000000000000000000000000000000000000000000e8a95a17940b63e734000000000000000000000000000000000000000000000002cedca9bb6a3be8830000000000000000000000000000000000000000000000e8a9639fcf86d27b1c",
          "blockHash": "0x35b869d017703705daf6318f97d22ded2690e988533b40a534579d9a282cf3aa",
          "blockNumber": "0x18fcc89",
          "transactionHash": "0x246b30cc89a54278f48d014ec3d48558b3e232edb5b669daee60137bd7d9ed2b",
          "transactionIndex": "0x0",
          "logIndex": "0x0",
          "removed": false
        }
      ],
      "logsBloom": "0x00000000000000000000000000000000000000000000000001000000000000000000000000000000000000000000000020008000000000000000000000000000000000000000000000000000000000800000000000000000000100000000000000000000000000000000000000000000000000000000000080000000000000000040000000000000000000000000000000008000000004000000000000000000200000000000040000000000000000000000000000000000000000000000004000000000000000000001000000000000000000000000000000100000000000000000000000000000000000000000000000000000000000000000000000100000",
      "type": "0x2",
      "transactionHash": "0x246b30cc89a54278f48d014ec3d48558b3e232edb5b669daee60137bd7d9ed2b",
      "transactionIndex": "0x0",
      "blockHash": "0x35b869d017703705daf6318f97d22ded2690e988533b40a534579d9a282cf3aa",
      "blockNumber": "0x18fcc89",
      "gasUsed": "0xc00c",
      "effectiveGasPrice": "0xcb4d9573d",
      "from": "0x0af700a3026adfddc10f7aa8ba2419e8503592f7",
      "to": "0xa5d4d189939e1f8ac1e8d329273dc345554fcc95",
      "contractAddress": null
    }
  ],
  "libraries": [],
  "pending": [],
  "returns": {},
  "timestamp": 1757449877195,
  "chain": 80002,
  "commit": "3dcb0a3"
}