{
  "transactions": [
    {
      "hash": "0xce586cb6c4c779dbb6ace04364e3f30cf96911836f0a3348ec953e1419425a9a",
      "transactionType": "CALL",
      "contractName": null,
      "contractAddress": "0xa5d4d189939e1f8ac1e8d329273dc345554fcc95",
      "function": "whitelistIdentity(address,address)",
      "arguments": [
        "0x711aD193a98f0cef86dA4ad5312092772F39a869",
        "0x241Bd12a42C1541FCbe2A960688A1244C290D5eE"
      ],
      "transaction": {
        "from": "0x0af700a3026adfddc10f7aa8ba2419e8503592f7",
        "to": "0xa5d4d189939e1f8ac1e8d329273dc345554fcc95",
        "gas": "0x10953",
        "value": "0x0",
        "input": "0x7c6e0d3f000000000000000000000000711ad193a98f0cef86da4ad5312092772f39a869000000000000000000000000241bd12a42c1541fcbe2a960688a1244c290d5ee",
        "nonce": "0x166",
        "chainId": "0x13882"
      },
      "additionalContracts": [],
      "isFixedGasLimit": false
    }
  ],
  "receipts": [
    {
      "status": "0x1",
      "cumulativeGasUsed": "0x2aa4b",
      "logs": [
        {
          "address": "0x0000000000000000000000000000000000001010",
          "topics": [
            "0x4dfe1bbbcf077ddc3e01291eea2d5c70c2b422b415d95645b9adcfd678cb1d63",
            "0x0000000000000000000000000000000000000000000000000000000000001010",
            "0x0000000000000000000000000af700a3026adfddc10f7aa8ba2419e8503592f7",
            "0x0000000000000000000000004ca9ff871c7aa1e7b64e1eae110835f68d6a0bd4"
          ],
          "data": "0x0000000000000000000000000000000000000000000000000006fdf0c53fa368000000000000000000000000000000000000000000000002cffdd118e7879add0000000000000000000000000000000000000000000000e89f37281e5468f6d1000000000000000000000000000000000000000000000002cff6d3282247f7750000000000000000000000000000000000000000000000e89f3e260f19a89a39",
          "blockHash": "0xab40502fee4dc06a54f059cf293e3433392795f897faaa578aa211de99f86fb8",
          "blockNumber": "0x18fcaa8",
          "transactionHash": "0xce586cb6c4c779dbb6ace04364e3f30cf96911836f0a3348ec953e1419425a9a",
          "transactionIndex": "0x1",
          "logIndex": "0x4",
          "removed": false
        }
      ],
      "logsBloom": "0x00000000000000000000000000000000000000000000000001000000000000000000000000000000000000000000000020008000000000000000000000000000000000000000000000000000000000800000000000000000000100000000000000000000000000000000000000000000000000000000000080000000000000000040000000000000000000000000000000008000000004000000000000000000200000000000040000000000000000000000000000000000000000000000004000000000000000000001000000000000000000000000000000100000000000000000000000000000000000000000000000000000000000000000000000100000",
      "type": "0x2",
      "transactionHash": "0xce586cb6c4c779dbb6ace04364e3f30cf96911836f0a3348ec953e1419425a9a",
      "transactionIndex": "0x1",
      "blockHash": "0xab40502fee4dc06a54f059cf293e3433392795f897faaa578aa211de99f86fb8",
      "blockNumber": "0x18fcaa8",
      "gasUsed": "0xc018",
      "effectiveGasPrice": "0x9516c2f0e",
      "from": "0x0af700a3026adfddc10f7aa8ba2419e8503592f7",
      "to": "0xa5d4d189939e1f8ac1e8d329273dc345554fcc95",
      "contractAddress": null
    }
  ],
  "libraries": [],
  "pending": [],
  "returns": {},
  "timestamp": 1757448855190,
  "chain": 80002,
  "commit": "3dcb0a3"
}