{
  "transactions": [
    {
      "hash": "0x29143d3610ddfd0cb7c9d7912f141f55928a2c368e14c38d3323f9bb2f304978",
      "transactionType": "CALL",
      "contractName": null,
      "contractAddress": "0x53ace7307b7dbf39f9fb5876fcfd3ac1fb07471e",
      "function": "setIAFactory(address)",
      "arguments": [
        "0x3B746CC01bFCe0CE93a82FA49c6Bdde1C3BA550E"
      ],
      "transaction": {
        "from": "0x0af700a3026adfddc10f7aa8ba2419e8503592f7",
        "to": "0x53ace7307b7dbf39f9fb5876fcfd3ac1fb07471e",
        "gas": "0x139db",
        "value": "0x0",
        "input": "0xcf49020e0000000000000000000000003b746cc01bfce0ce93a82fa49c6bdde1c3ba550e",
        "nonce": "0x130",
        "chainId": "0x13882"
      },
      "additionalContracts": [],
      "isFixedGasLimit": false
    }
  ],
  "receipts": [
    {
      "status": "0x1",
      "cumulativeGasUsed": "0xd69b",
      "logs": [
        {
          "address": "0x53ace7307b7dbf39f9fb5876fcfd3ac1fb07471e",
          "topics": [
            "0x5fb25b36f93b3d8443f7502abdc1157f581f15db724459ffb2800fce6132a008",
            "0x0000000000000000000000003b746cc01bfce0ce93a82fa49c6bdde1c3ba550e"
          ],
          "data": "0x",
          "blockHash": "0x2063527efb0d54b6c9f0934bff99f2512fca714c73d7fddff9dffccb746c52e6",
          "blockNumber": "0x1875395",
          "transactionHash": "0x29143d3610ddfd0cb7c9d7912f141f55928a2c368e14c38d3323f9bb2f304978",
          "transactionIndex": "0x0",
          "logIndex": "0x0",
          "removed": false
        },
        {
          "address": "0x0000000000000000000000000000000000001010",
          "topics": [
            "0x4dfe1bbbcf077ddc3e01291eea2d5c70c2b422b415d95645b9adcfd678cb1d63",
            "0x0000000000000000000000000000000000000000000000000000000000001010",
            "0x0000000000000000000000000af700a3026adfddc10f7aa8ba2419e8503592f7",
            "0x0000000000000000000000004ad84f7014b7b44f723f284a85b1662337971439"
          ],
          "data": "0x0000000000000000000000000000000000000000000000000028032df58f5311000000000000000000000000000000000000000000000003345aa4997d9c9a0e000000000000000000000000000000000000000000000a0ca931a4275cd0c3dc0000000000000000000000000000000000000000000000033432a16b880d46fd000000000000000000000000000000000000000000000a0ca959a755526016ed",
          "blockHash": "0x2063527efb0d54b6c9f0934bff99f2512fca714c73d7fddff9dffccb746c52e6",
          "blockNumber": "0x1875395",
          "transactionHash": "0x29143d3610ddfd0cb7c9d7912f141f55928a2c368e14c38d3323f9bb2f304978",
          "transactionIndex": "0x0",
          "logIndex": "0x1",
          "removed": false
        }
      ],
      "logsBloom": "0x00000000000000000000000000000000000000000000000001000000000000000000000000000000000000000000000000008000000000000000000000400000000000000000000000100000000000800000000000000000000100001000000000000000000000000000000000000000000000000000000080000000000000000040000000000000000000000010000018000000000004000000000000000000200000000000000000000000000000000000000000000000000000000000004020000000001000000001002000000000000000400000000000100000000000000000000000000000000008000000008000000000000000000000000000100000",
      "type": "0x2",
      "transactionHash": "0x29143d3610ddfd0cb7c9d7912f141f55928a2c368e14c38d3323f9bb2f304978",
      "transactionIndex": "0x0",
      "blockHash": "0x2063527efb0d54b6c9f0934bff99f2512fca714c73d7fddff9dffccb746c52e6",
      "blockNumber": "0x1875395",
      "gasUsed": "0xd69b",
      "effectiveGasPrice": "0x2fbaf3c202",
      "from": "0x0af700a3026adfddc10f7aa8ba2419e8503592f7",
      "to": "0x53ace7307b7dbf39f9fb5876fcfd3ac1fb07471e",
      "contractAddress": null
    }
  ],
  "libraries": [],
  "pending": [],
  "returns": {},
  "timestamp": 1756244620103,
  "chain": 80002,
  "commit": "3dcb0a3"
}