{
  "transactions": [
    {
      "hash": "0x4cab0466ffc59546397f64cdf4774f3cfceb00e4b3c5ba75dc2b30e4b3e20e68",
      "transactionType": "CALL",
      "contractName": null,
      "contractAddress": "0x39992cceaedb0fa8f4fd3f2fbc5134707635b371",
      "function": "addTokenFactory(address)",
      "arguments": [
        "0x19c99c82512E85732d0f9c563E550bea00A04070"
      ],
      "transaction": {
        "from": "0x0af700a3026adfddc10f7aa8ba2419e8503592f7",
        "to": "0x39992cceaedb0fa8f4fd3f2fbc5134707635b371",
        "gas": "0x10155",
        "value": "0x0",
        "input": "0x9ce1936500000000000000000000000019c99c82512e85732d0f9c563e550bea00a04070",
        "nonce": "0x131",
        "chainId": "0x13882"
      },
      "additionalContracts": [],
      "isFixedGasLimit": false
    }
  ],
  "receipts": [
    {
      "status": "0x1",
      "cumulativeGasUsed": "0xba4f",
      "logs": [
        {
          "address": "0x39992cceaedb0fa8f4fd3f2fbc5134707635b371",
          "topics": [
            "0x45eb8ac5344d2d3f306550fe6e969ca4190526313c512afed851d052bf2ab2fd",
            "0x00000000000000000000000019c99c82512e85732d0f9c563e550bea00a04070"
          ],
          "data": "0x",
          "blockHash": "0x2a080c2ca09c3336ea77ff1fae829267322557a5b68c9b7150de7ab25893ba0c",
          "blockNumber": "0x18753a9",
          "transactionHash": "0x4cab0466ffc59546397f64cdf4774f3cfceb00e4b3c5ba75dc2b30e4b3e20e68",
          "transactionIndex": "0x0",
          "logIndex": "0x0",
          "removed": false
        },
        {
          "address": "0x0000000000000000000000000000000000001010",
          "topics": [
            "0x4dfe1bbbcf077ddc3e01291eea2d5c70c2b422b415d95645b9adcfd678cb1d63",
            "0x0000000000000000000000000000000000000000000000000000000000001010",
            "0x0000000000000000000000000af700a3026adfddc10f7aa8ba2419e8503592f7",
            "0x0000000000000000000000006ab3d36c46ecfb9b9c0bd51cb1c3da5a2c81cea6"
          ],
          "data": "0x0000000000000000000000000000000000000000000000000021e3ab8255568f0000000000000000000000000000000000000000000000033432a16b87d876d80000000000000000000000000000000000000000000008b59ee9ae8664fe61a60000000000000000000000000000000000000000000000033410bdc0058320490000000000000000000000000000000000000000000008b59f0b9231e753b835",
          "blockHash": "0x2a080c2ca09c3336ea77ff1fae829267322557a5b68c9b7150de7ab25893ba0c",
          "blockNumber": "0x18753a9",
          "transactionHash": "0x4cab0466ffc59546397f64cdf4774f3cfceb00e4b3c5ba75dc2b30e4b3e20e68",
          "transactionIndex": "0x0",
          "logIndex": "0x1",
          "removed": false
        }
      ],
      "logsBloom": "0x000000000800000000000000400000000000000000000000010000000000000000000000000000020000000000000000001080000000000000000000000000000000000c0000000000000000000000800000000000400000000100000000000000000000000000000000000000000000000000000000000080000000400000000040000000000000000000000000000000000000000004080000000000000000200000000000000000000000000000000000000000000000000000000000004000000000000000000001000000000002000000010000000000100000000000000000000000000000000000800000000000000000000000000000000000100000",
      "type": "0x2",
      "transactionHash": "0x4cab0466ffc59546397f64cdf4774f3cfceb00e4b3c5ba75dc2b30e4b3e20e68",
      "transactionIndex": "0x0",
      "blockHash": "0x2a080c2ca09c3336ea77ff1fae829267322557a5b68c9b7150de7ab25893ba0c",
      "blockNumber": "0x18753a9",
      "gasUsed": "0xba4f",
      "effectiveGasPrice": "0x2e90edd000",
      "from": "0x0af700a3026adfddc10f7aa8ba2419e8503592f7",
      "to": "0x39992cceaedb0fa8f4fd3f2fbc5134707635b371",
      "contractAddress": null
    }
  ],
  "libraries": [],
  "pending": [],
  "returns": {},
  "timestamp": 1756244663188,
  "chain": 80002,
  "commit": "3dcb0a3"
}