{
  "transactions": [
    {
      "hash": "0xa7b0d2b3d5da02cdfd8c0c3ae6e9be1e1c6df01b56805e661dbbbff57c5474cc",
      "transactionType": "CREATE",
      "contractName": "TREXCompliance",
      "contractAddress": "0x49073c9b8e4e34b74623c4ba7e9eb1456f92aca5",
      "function": null,
      "arguments": null,
      "transaction": {
        "from": "0x0af700a3026adfddc10f7aa8ba2419e8503592f7",
        "gas": "0xb098c",
        "value": "0x0",
        "input": "0x6080806040523461002857600080546001600160a01b031916331790556108b1908161002e8239f35b600080fdfe604060808152600436101561001357600080fd5b6000803560e01c918263013b7ce4146105515782630694a5fb146104f557826306fdde03146104455782631526ac8b1461035f5782632cb7e1ec14610335578263372491a21461032a5782634a932544146102cb5782634cf4d2951461028f5782637885dc4f1461021b5782637c6e0d3f1461012c5782638da5cb5b14610106578263bcc21053146100e2578263e6f5e807146100c457505063f104a8c9146100bc575b600080fd5b6100b76105cc565b346100de57816003193601126100de576020905160018152f35b5080fd5b346100de5760203660031901126100de576020906100fe6105a0565b505160018152f35b346100de57816003193601126100de57905490516001600160a01b039091168152602090f35b346100de57806003193601126100de576101446105a0565b61014c6105b6565b9060018060a01b0380916101648287541633146105e8565b168085526020916003835261017e60ff868820541661064b565b81865260028352848620931692838652825260ff84862054166101b857845260028152828420918452528120805460ff1916600117905580f35b835162461bcd60e51b815260048101839052603660248201527f53696d706c6557686974656c6973744d6f64756c653a204964656e74697479206044820152751a5cc8185b1c9958591e481dda1a5d195b1a5cdd195960521b6064820152608490fd5b346100de57806003193601126100de576102336105a0565b61023b6105b6565b9160018060a01b0380926102538287541633146105e8565b16808552600360205261026b60ff838720541661064b565b84526001602052832091166bffffffffffffffffffffffff60a01b82541617905580f35b346100de5760203660031901126100de5760209160ff9082906001600160a01b036102b86105a0565b1681526003855220541690519015158152f35b346100de5760203660031901126100de576001600160a01b036102ec6105a0565b168083526003602052908220805460ff191660011790557f1f7b76c58fb697eb53c6c7c1becb96911516a136e24d7ced386b2355358b75a38280a280f35b5050506100b76105cc565b503461035c57606036600319011261035c5761034f6105a0565b506103586105b6565b5080f35b80fd5b346100de57806003193601126100de576103776105a0565b61037f6105b6565b9060018060a01b0380916103978287541633146105e8565b16808552602091600383526103b160ff868820541661064b565b81865260028352848620931692838652825260ff8486205416156103e957845260028152828420918452528120805460ff1916905580f35b835162461bcd60e51b815260048101839052602f60248201527f53696d706c6557686974656c6973744d6f64756c653a204964656e746974792060448201526e1b9bdd081dda1a5d195b1a5cdd1959608a1b6064820152608490fd5b346100de57816003193601126100de57805181810181811067ffffffffffffffff8211176104e1578252601781526020907f53696d706c652057686974656c697374204d6f64756c650000000000000000008282015282519382859384528251928382860152825b8481106104cb57505050828201840152601f01601f19168101030190f35b81810183015188820188015287955082016104ad565b634e487b7160e01b84526041600452602484fd5b346100de5760203660031901126100de576001600160a01b036105166105a0565b168083526003602052908220805460ff191690557f408b49d9be1c914c52a0227e18a077e5a892dddf32a26cfa94a5d9708fad77188280a280f35b346100de5760803660031901126100de5761056a6105a0565b6105726105b6565b606435939091906001600160a01b038516850361035c57509261059791602094610702565b90519015158152f35b600435906001600160a01b03821682036100b757565b602435906001600160a01b03821682036100b757565b50346100b75760403660031901126100b7576105e66105a0565b005b156105ef57565b60405162461bcd60e51b815260206004820152602e60248201527f53696d706c6557686974656c6973744d6f64756c653a2043616c6c657220697360448201526d103737ba103a34329037bbb732b960911b6064820152608490fd5b1561065257565b60405162461bcd60e51b815260206004820152602b60248201527f53696d706c6557686974656c6973744d6f64756c653a20436f6d706c69616e6360448201526a19481b9bdd08189bdd5b9960aa1b6064820152608490fd5b90601f8019910116810190811067ffffffffffffffff8211176106cd57604052565b634e487b7160e01b600052604160045260246000fd5b908160209103126100b757516001600160a01b03811681036100b75790565b9060018060a01b03809316916000938385526020916001835260409382858820541691821561086e57849184809216806107d7575b508651633c3ad79560e21b81529116600482015291829060249082905afa9081156107cd5786916107a0575b5016908115938415610781575b5050505061077e5750600190565b90565b60ff945085526002815282852091855252822054161538808080610770565b6107c09150833d85116107c6575b6107b881836106ab565b8101906106e3565b38610763565b503d6107ae565b84513d88823e3d90fd5b91509150855190633c3ad79560e21b825260048201528481602481865afa908115610864579084918991610847575b50168015908115610829575b506108205782849138610737565b50505050505090565b878952600286528689209089528552508487205460ff161538610812565b61085e9150863d88116107c6576107b881836106ab565b38610806565b86513d8a823e3d90fd5b505050505050505060019056fea26469706673582212204534b8466e2c570b656112fd4401ea42c1668b25a3e71f03eb7d7ed873adfa0c64736f6c63430008110033",
        "nonce": "0x183",
        "chainId": "0x13882"
      },
      "additionalContracts": [],
      "isFixedGasLimit": false
    },
    {
      "hash": "0xfc34413f99cf7b8b67cebbf55cba8661b5a43ec945eefab95c6e15ec14233bd5",
      "transactionType": "CALL",
      "contractName": null,
      "contractAddress": "0x1d7763c6c7bc12fc53e6667b17671d911ae6caec",
      "function": "addModule(address)",
      "arguments": [
        "0x49073c9B8e4E34B74623C4Ba7e9EB1456f92ACa5"
      ],
      "transaction": {
        "from": "0x0af700a3026adfddc10f7aa8ba2419e8503592f7",
        "to": "0x1d7763c6c7bc12fc53e6667b17671d911ae6caec",
        "gas": "0x2caf1",
        "value": "0x0",
        "input": "0x1ed86f1900000000000000000000000049073c9b8e4e34b74623c4ba7e9eb1456f92aca5",
        "nonce": "0x184",
        "chainId": "0x13882"
      },
      "additionalContracts": [],
      "isFixedGasLimit": false
    },
    {
      "hash": "0x2669ba11ffa1eefa94612326b3af0f3901bba1785e98f7cda642a55a303739dc",
      "transactionType": "CALL",
      "contractName": "TREXCompliance",
      "contractAddress": "0x49073c9b8e4e34b74623c4ba7e9eb1456f92aca5",
      "function": "setIdentityRegistry(address,address)",
      "arguments": [
        "0x1D7763C6C7bc12fc53e6667b17671d911aE6CaEC",
        "0xAa7bdF67038D0c8a8F14418eeDBFb965213732Da"
      ],
      "transaction": {
        "from": "0x0af700a3026adfddc10f7aa8ba2419e8503592f7",
        "to": "0x49073c9b8e4e34b74623c4ba7e9eb1456f92aca5",
        "gas": "0x1077f",
        "value": "0x0",
        "input": "0x7885dc4f0000000000000000000000001d7763c6c7bc12fc53e6667b17671d911ae6caec000000000000000000000000aa7bdf67038d0c8a8f14418eedbfb965213732da",
        "nonce": "0x185",
        "chainId": "0x13882"
      },
      "additionalContracts": [],
      "isFixedGasLimit": false
    }
  ],
  "receipts": [
    {
      "status": "0x1",
      "cumulativeGasUsed": "0x87d80",
      "logs": [
        {
          "address": "0x0000000000000000000000000000000000001010",
          "topics": [
            "0x4dfe1bbbcf077ddc3e01291eea2d5c70c2b422b415d95645b9adcfd678cb1d63",
            "0x0000000000000000000000000000000000000000000000000000000000001010",
            "0x0000000000000000000000000af700a3026adfddc10f7aa8ba2419e8503592f7",
            "0x0000000000000000000000006dc2dd54f24979ec26212794c71afefed722280c"
          ],
          "data": "0x0000000000000000000000000000000000000000000000000068fa3b749b7c80000000000000000000000000000000000000000000000002c2dc8f28d04f50840000000000000000000000000000000000000000000009c7e753970c4f313bed000000000000000000000000000000000000000000000002c27394ed5bb3d4040000000000000000000000000000000000000000000009c7e7bc9147c3ccb86d",
          "blockHash": "0xdb8e80268f7091a87c2c4ee8b8206d6243b0dd941bbfa2404ce75369677a4ef0",
          "blockNumber": "0x190774b",
          "transactionHash": "0xa7b0d2b3d5da02cdfd8c0c3ae6e9be1e1c6df01b56805e661dbbbff57c5474cc",
          "transactionIndex": "0x0",
          "logIndex": "0x0",
          "removed": false
        }
      ],
      "logsBloom": "0x00000000000000000000000000000000000000000000000001000000000000000000000000000000000000000000000000008000000000000000000000000000000000000000000000000000000000800000000000000000000100080000000000000000000000000000000000000000000000000000000080000000000000020040000000000000000000000040000000000000000004000000000000000000200000000000000000000000000000000000000000000000000000000000004000000000000000000001000000000000000000000000000000100000000000000000000000000000000000000000000000000000000000000000000000100000",
      "type": "0x2",
      "transactionHash": "0xa7b0d2b3d5da02cdfd8c0c3ae6e9be1e1c6df01b56805e661dbbbff57c5474cc",
      "transactionIndex": "0x0",
      "blockHash": "0xdb8e80268f7091a87c2c4ee8b8206d6243b0dd941bbfa2404ce75369677a4ef0",
      "blockNumber": "0x190774b",
      "gasUsed": "0x87d80",
      "effectiveGasPrice": "0xc5d4f9dda",
      "from": "0x0af700a3026adfddc10f7aa8ba2419e8503592f7",
      "to": null,
      "contractAddress": "0x49073c9b8e4e34b74623c4ba7e9eb1456f92aca5"
    },
    {
      "status": "0x1",
      "cumulativeGasUsed": "0xa831c",
      "logs": [
        {
          "address": "0x49073c9b8e4e34b74623c4ba7e9eb1456f92aca5",
          "topics": [
            "0x1f7b76c58fb697eb53c6c7c1becb96911516a136e24d7ced386b2355358b75a3",
            "0x0000000000000000000000001d7763c6c7bc12fc53e6667b17671d911ae6caec"
          ],
          "data": "0x",
          "blockHash": "0xdb8e80268f7091a87c2c4ee8b8206d6243b0dd941bbfa2404ce75369677a4ef0",
          "blockNumber": "0x190774b",
          "transactionHash": "0xfc34413f99cf7b8b67cebbf55cba8661b5a43ec945eefab95c6e15ec14233bd5",
          "transactionIndex": "0x1",
          "logIndex": "0x1",
          "removed": false
        },
        {
          "address": "0x1d7763c6c7bc12fc53e6667b17671d911ae6caec",
          "topics": [
            "0xead6a006345da1073a106d5f32372d2d2204f46cb0b4bca8f5ebafcbbed12b8a",
            "0x00000000000000000000000049073c9b8e4e34b74623c4ba7e9eb1456f92aca5"
          ],
          "data": "0x",
          "blockHash": "0xdb8e80268f7091a87c2c4ee8b8206d6243b0dd941bbfa2404ce75369677a4ef0",
          "blockNumber": "0x190774b",
          "transactionHash": "0xfc34413f99cf7b8b67cebbf55cba8661b5a43ec945eefab95c6e15ec14233bd5",
          "transactionIndex": "0x1",
          "logIndex": "0x2",
          "removed": false
        },
        {
          "address": "0x0000000000000000000000000000000000001010",
          "topics": [
            "0x4dfe1bbbcf077ddc3e01291eea2d5c70c2b422b415d95645b9adcfd678cb1d63",
            "0x0000000000000000000000000000000000000000000000000000000000001010",
            "0x0000000000000000000000000af700a3026adfddc10f7aa8ba2419e8503592f7",
            "0x0000000000000000000000006dc2dd54f24979ec26212794c71afefed722280c"
          ],
          "data": "0x0000000000000000000000000000000000000000000000000018fffaa5ce1174000000000000000000000000000000000000000000000002c27394ed599cf1840000000000000000000000000000000000000000000009c7e7bc9147c3ccb86d000000000000000000000000000000000000000000000002c25a94f2b3cee0100000000000000000000000000000000000000000000009c7e7d59142699ac9e1",
          "blockHash": "0xdb8e80268f7091a87c2c4ee8b8206d6243b0dd941bbfa2404ce75369677a4ef0",
          "blockNumber": "0x190774b",
          "transactionHash": "0xfc34413f99cf7b8b67cebbf55cba8661b5a43ec945eefab95c6e15ec14233bd5",
          "transactionIndex": "0x1",
          "logIndex": "0x3",
          "removed": false
        }
      ],
      "logsBloom": "0x00000400040000000000000000000000000000000000200001000000000000000000000000000000000000000001000001008000040000000000000000000000000000000000000000000000000000800100000000000000000100080000000000000000000000200000000080000400000000000200000080000000000000020040000000000000000000000040000002000000000004002000000000000000200000000000000000000100000000000000000000000000000000000040004000000000020000000001000000000000000000000000000000100000000000000000000000000000000008000000000000000000000000040000000000100000",
      "type": "0x2",
      "transactionHash": "0xfc34413f99cf7b8b67cebbf55cba8661b5a43ec945eefab95c6e15ec14233bd5",
      "transactionIndex": "0x1",
      "blockHash": "0xdb8e80268f7091a87c2c4ee8b8206d6243b0dd941bbfa2404ce75369677a4ef0",
      "blockNumber": "0x190774b",
      "gasUsed": "0x2059c",
      "effectiveGasPrice": "0xc5d4f9dda",
      "from": "0x0af700a3026adfddc10f7aa8ba2419e8503592f7",
      "to": "0x1d7763c6c7bc12fc53e6667b17671d911ae6caec",
      "contractAddress": null
    },
    {
      "status": "0x1",
      "cumulativeGasUsed": "0xb41e1",
      "logs": [
        {
          "address": "0x0000000000000000000000000000000000001010",
          "topics": [
            "0x4dfe1bbbcf077ddc3e01291eea2d5c70c2b422b415d95645b9adcfd678cb1d63",
            "0x0000000000000000000000000000000000000000000000000000000000001010",
            "0x0000000000000000000000000af700a3026adfddc10f7aa8ba2419e8503592f7",
            "0x0000000000000000000000006dc2dd54f24979ec26212794c71afefed722280c"
          ],
          "data": "0x000000000000000000000000000000000000000000000000000936c4e53d5247000000000000000000000000000000000000000000000002c25a94f2b34f7eac0000000000000000000000000000000000000000000009c7e7d59142699ac9e1000000000000000000000000000000000000000000000002c2515e2dce122c650000000000000000000000000000000000000000000009c7e7dec8074ed81c28",
          "blockHash": "0xdb8e80268f7091a87c2c4ee8b8206d6243b0dd941bbfa2404ce75369677a4ef0",
          "blockNumber": "0x190774b",
          "transactionHash": "0x2669ba11ffa1eefa94612326b3af0f3901bba1785e98f7cda642a55a303739dc",
          "transactionIndex": "0x2",
          "logIndex": "0x4",
          "removed": false
        }
      ],
      "logsBloom": "0x00000000000000000000000000000000000000000000000001000000000000000000000000000000000000000000000000008000000000000000000000000000000000000000000000000000000000800000000000000000000100080000000000000000000000000000000000000000000000000000000080000000000000020040000000000000000000000040000000000000000004000000000000000000200000000000000000000000000000000000000000000000000000000000004000000000000000000001000000000000000000000000000000100000000000000000000000000000000000000000000000000000000000000000000000100000",
      "type": "0x2",
      "transactionHash": "0x2669ba11ffa1eefa94612326b3af0f3901bba1785e98f7cda642a55a303739dc",
      "transactionIndex": "0x2",
      "blockHash": "0xdb8e80268f7091a87c2c4ee8b8206d6243b0dd941bbfa2404ce75369677a4ef0",
      "blockNumber": "0x190774b",
      "gasUsed": "0xbec5",
      "effectiveGasPrice": "0xc5d4f9dda",
      "from": "0x0af700a3026adfddc10f7aa8ba2419e8503592f7",
      "to": "0x49073c9b8e4e34b74623c4ba7e9eb1456f92aca5",
      "contractAddress": null
    }
  ],
  "libraries": [],
  "pending": [],
  "returns": {},
  "timestamp": 1757543910817,
  "chain": 80002,
  "commit": "3dcb0a3"
}