{
  "transactions": [
    {
      "hash": "0xb97da850486fd8deeac2e62dbd3fc2797c57d61a8f1bc7ff7aef71b8336ea14f",
      "transactionType": "CREATE",
      "contractName": "TREXCompliance",
      "contractAddress": "0xa5d4d189939e1f8ac1e8d329273dc345554fcc95",
      "function": null,
      "arguments": null,
      "transaction": {
        "from": "0x0af700a3026adfddc10f7aa8ba2419e8503592f7",
        "gas": "0xb098c",
        "value": "0x0",
        "input": "0x6080806040523461002857600080546001600160a01b031916331790556108b1908161002e8239f35b600080fdfe604060808152600436101561001357600080fd5b6000803560e01c918263013b7ce4146105515782630694a5fb146104f557826306fdde03146104455782631526ac8b1461035f5782632cb7e1ec14610335578263372491a21461032a5782634a932544146102cb5782634cf4d2951461028f5782637885dc4f1461021b5782637c6e0d3f1461012c5782638da5cb5b14610106578263bcc21053146100e2578263e6f5e807146100c457505063f104a8c9146100bc575b600080fd5b6100b76105cc565b346100de57816003193601126100de576020905160018152f35b5080fd5b346100de5760203660031901126100de576020906100fe6105a0565b505160018152f35b346100de57816003193601126100de57905490516001600160a01b039091168152602090f35b346100de57806003193601126100de576101446105a0565b61014c6105b6565b9060018060a01b0380916101648287541633146105e8565b168085526020916003835261017e60ff868820541661064b565b81865260028352848620931692838652825260ff84862054166101b857845260028152828420918452528120805460ff1916600117905580f35b835162461bcd60e51b815260048101839052603660248201527f53696d706c6557686974656c6973744d6f64756c653a204964656e74697479206044820152751a5cc8185b1c9958591e481dda1a5d195b1a5cdd195960521b6064820152608490fd5b346100de57806003193601126100de576102336105a0565b61023b6105b6565b9160018060a01b0380926102538287541633146105e8565b16808552600360205261026b60ff838720541661064b565b84526001602052832091166bffffffffffffffffffffffff60a01b82541617905580f35b346100de5760203660031901126100de5760209160ff9082906001600160a01b036102b86105a0565b1681526003855220541690519015158152f35b346100de5760203660031901126100de576001600160a01b036102ec6105a0565b168083526003602052908220805460ff191660011790557f1f7b76c58fb697eb53c6c7c1becb96911516a136e24d7ced386b2355358b75a38280a280f35b5050506100b76105cc565b503461035c57606036600319011261035c5761034f6105a0565b506103586105b6565b5080f35b80fd5b346100de57806003193601126100de576103776105a0565b61037f6105b6565b9060018060a01b0380916103978287541633146105e8565b16808552602091600383526103b160ff868820541661064b565b81865260028352848620931692838652825260ff8486205416156103e957845260028152828420918452528120805460ff1916905580f35b835162461bcd60e51b815260048101839052602f60248201527f53696d706c6557686974656c6973744d6f64756c653a204964656e746974792060448201526e1b9bdd081dda1a5d195b1a5cdd1959608a1b6064820152608490fd5b346100de57816003193601126100de57805181810181811067ffffffffffffffff8211176104e1578252601781526020907f53696d706c652057686974656c697374204d6f64756c650000000000000000008282015282519382859384528251928382860152825b8481106104cb57505050828201840152601f01601f19168101030190f35b81810183015188820188015287955082016104ad565b634e487b7160e01b84526041600452602484fd5b346100de5760203660031901126100de576001600160a01b036105166105a0565b168083526003602052908220805460ff191690557f408b49d9be1c914c52a0227e18a077e5a892dddf32a26cfa94a5d9708fad77188280a280f35b346100de5760803660031901126100de5761056a6105a0565b6105726105b6565b606435939091906001600160a01b038516850361035c57509261059791602094610702565b90519015158152f35b600435906001600160a01b03821682036100b757565b602435906001600160a01b03821682036100b757565b50346100b75760403660031901126100b7576105e66105a0565b005b156105ef57565b60405162461bcd60e51b815260206004820152602e60248201527f53696d706c6557686974656c6973744d6f64756c653a2043616c6c657220697360448201526d103737ba103a34329037bbb732b960911b6064820152608490fd5b1561065257565b60405162461bcd60e51b815260206004820152602b60248201527f53696d706c6557686974656c6973744d6f64756c653a20436f6d706c69616e6360448201526a19481b9bdd08189bdd5b9960aa1b6064820152608490fd5b90601f8019910116810190811067ffffffffffffffff8211176106cd57604052565b634e487b7160e01b600052604160045260246000fd5b908160209103126100b757516001600160a01b03811681036100b75790565b9060018060a01b03809316916000938385526020916001835260409382858820541691821561086e57849184809216806107d7575b508651633c3ad79560e21b81529116600482015291829060249082905afa9081156107cd5786916107a0575b5016908115938415610781575b5050505061077e5750600190565b90565b60ff945085526002815282852091855252822054161538808080610770565b6107c09150833d85116107c6575b6107b881836106ab565b8101906106e3565b38610763565b503d6107ae565b84513d88823e3d90fd5b91509150855190633c3ad79560e21b825260048201528481602481865afa908115610864579084918991610847575b50168015908115610829575b506108205782849138610737565b50505050505090565b878952600286528689209089528552508487205460ff161538610812565b61085e9150863d88116107c6576107b881836106ab565b38610806565b86513d8a823e3d90fd5b505050505050505060019056fea26469706673582212204534b8466e2c570b656112fd4401ea42c1668b25a3e71f03eb7d7ed873adfa0c64736f6c63430008110033",
        "nonce": "0x163",
        "chainId": "0x13882"
      },
      "additionalContracts": [],
      "isFixedGasLimit": false
    },
    {
      "hash": "0x720a0aa975e702df0ed1de517e93be18d81c4fb93132488de4cd7e0c55d37b06",
      "transactionType": "CALL",
      "contractName": null,
      "contractAddress": "0x711ad193a98f0cef86da4ad5312092772f39a869",
      "function": "addModule(address)",
      "arguments": [
        "0xA5D4D189939E1f8Ac1E8d329273dc345554fCc95"
      ],
      "transaction": {
        "from": "0x0af700a3026adfddc10f7aa8ba2419e8503592f7",
        "to": "0x711ad193a98f0cef86da4ad5312092772f39a869",
        "gas": "0x26eaf",
        "value": "0x0",
        "input": "0x1ed86f19000000000000000000000000a5d4d189939e1f8ac1e8d329273dc345554fcc95",
        "nonce": "0x164",
        "chainId": "0x13882"
      },
      "additionalContracts": [],
      "isFixedGasLimit": false
    },
    {
      "hash": "0xa40feb1cf8608a16a67e87b7b399f444772736d47b869c496d082dcd94068e92",
      "transactionType": "CALL",
      "contractName": "TREXCompliance",
      "contractAddress": "0xa5d4d189939e1f8ac1e8d329273dc345554fcc95",
      "function": "setIdentityRegistry(address,address)",
      "arguments": [
        "0x711aD193a98f0cef86dA4ad5312092772F39a869",
        "0xB0B0b80A9166a9b7c27E700FfFf6AfCfA8acaC9D"
      ],
      "transaction": {
        "from": "0x0af700a3026adfddc10f7aa8ba2419e8503592f7",
        "to": "0xa5d4d189939e1f8ac1e8d329273dc345554fcc95",
        "gas": "0x1077f",
        "value": "0x0",
        "input": "0x7885dc4f000000000000000000000000711ad193a98f0cef86da4ad5312092772f39a869000000000000000000000000b0b0b80a9166a9b7c27e700ffff6afcfa8acac9d",
        "nonce": "0x165",
        "chainId": "0x13882"
      },
      "additionalContracts": [],
      "isFixedGasLimit": false
    }
  ],
  "receipts": [
    {
      "status": "0x1",
      "cumulativeGasUsed": "0x87d80",
      "logs": [
        {
          "address": "0x0000000000000000000000000000000000001010",
          "topics": [
            "0x4dfe1bbbcf077ddc3e01291eea2d5c70c2b422b415d95645b9adcfd678cb1d63",
            "0x0000000000000000000000000000000000000000000000000000000000001010",
            "0x0000000000000000000000000af700a3026adfddc10f7aa8ba2419e8503592f7",
            "0x00000000000000000000000085ebd6dc97d56f62e371382b38eae91f3bb4ecb2"
          ],
          "data": "0x00000000000000000000000000000000000000000000000000794630dcaf6380000000000000000000000000000000000000000000000002d09ae39f132fcc910000000000000000000000000000000000000000000001f25f6b6042b6d61f94000000000000000000000000000000000000000000000002d0219d6e368069110000000000000000000000000000000000000000000001f25fe4a67393858314",
          "blockHash": "0x9defcedff5d97949c6847bdea37b3a2cfd9824882ba38d98ed6db762f09ef8c0",
          "blockNumber": "0x18fc9a8",
          "transactionHash": "0xb97da850486fd8deeac2e62dbd3fc2797c57d61a8f1bc7ff7aef71b8336ea14f",
          "transactionIndex": "0x0",
          "logIndex": "0x0",
          "removed": false
        }
      ],
      "logsBloom": "0x00000000000000000000000000000000000000000000020001000000000000000000000000000000000000000000000000008000000000000000000000000000000000000000000000000000000000800000000000000000000100000000000000000000000000000000000000000000000000000000000080000000000000000040000000000000000000000000000000000000000004000010000000000000200000000000000000000000000000000000000000000000000000000000004000000000000000000001000000000000000000000000000000100000000000000000000000020000000000000000000000000000000000000000000000100000",
      "type": "0x2",
      "transactionHash": "0xb97da850486fd8deeac2e62dbd3fc2797c57d61a8f1bc7ff7aef71b8336ea14f",
      "transactionIndex": "0x0",
      "blockHash": "0x9defcedff5d97949c6847bdea37b3a2cfd9824882ba38d98ed6db762f09ef8c0",
      "blockNumber": "0x18fc9a8",
      "gasUsed": "0x87d80",
      "effectiveGasPrice": "0xe48b1b7e4",
      "from": "0x0af700a3026adfddc10f7aa8ba2419e8503592f7",
      "to": null,
      "contractAddress": "0xa5d4d189939e1f8ac1e8d329273dc345554fcc95"
    },
    {
      "status": "0x1",
      "cumulativeGasUsed": "0xa4050",
      "logs": [
        {
          "address": "0xa5d4d189939e1f8ac1e8d329273dc345554fcc95",
          "topics": [
            "0x1f7b76c58fb697eb53c6c7c1becb96911516a136e24d7ced386b2355358b75a3",
            "0x000000000000000000000000711ad193a98f0cef86da4ad5312092772f39a869"
          ],
          "data": "0x",
          "blockHash": "0x9defcedff5d97949c6847bdea37b3a2cfd9824882ba38d98ed6db762f09ef8c0",
          "blockNumber": "0x18fc9a8",
          "transactionHash": "0x720a0aa975e702df0ed1de517e93be18d81c4fb93132488de4cd7e0c55d37b06",
          "transactionIndex": "0x1",
          "logIndex": "0x1",
          "removed": false
        },
        {
          "address": "0x711ad193a98f0cef86da4ad5312092772f39a869",
          "topics": [
            "0xead6a006345da1073a106d5f32372d2d2204f46cb0b4bca8f5ebafcbbed12b8a",
            "0x000000000000000000000000a5d4d189939e1f8ac1e8d329273dc345554fcc95"
          ],
          "data": "0x",
          "blockHash": "0x9defcedff5d97949c6847bdea37b3a2cfd9824882ba38d98ed6db762f09ef8c0",
          "blockNumber": "0x18fc9a8",
          "transactionHash": "0x720a0aa975e702df0ed1de517e93be18d81c4fb93132488de4cd7e0c55d37b06",
          "transactionIndex": "0x1",
          "logIndex": "0x2",
          "removed": false
        },
        {
          "address": "0x0000000000000000000000000000000000001010",
          "topics": [
            "0x4dfe1bbbcf077ddc3e01291eea2d5c70c2b422b415d95645b9adcfd678cb1d63",
            "0x0000000000000000000000000000000000000000000000000000000000001010",
            "0x0000000000000000000000000af700a3026adfddc10f7aa8ba2419e8503592f7",
            "0x00000000000000000000000085ebd6dc97d56f62e371382b38eae91f3bb4ecb2"
          ],
          "data": "0x0000000000000000000000000000000000000000000000000019276375354010000000000000000000000000000000000000000000000002d0219d6e346986910000000000000000000000000000000000000000000001f25fe4a67393858314000000000000000000000000000000000000000000000002d008760abf3446810000000000000000000000000000000000000000000001f25ffdcdd708bac324",
          "blockHash": "0x9defcedff5d97949c6847bdea37b3a2cfd9824882ba38d98ed6db762f09ef8c0",
          "blockNumber": "0x18fc9a8",
          "transactionHash": "0x720a0aa975e702df0ed1de517e93be18d81c4fb93132488de4cd7e0c55d37b06",
          "transactionIndex": "0x1",
          "logIndex": "0x3",
          "removed": false
        }
      ],
      "logsBloom": "0x00000000040000000000000000000000000000000000020001000000000000000000000000000000000000000000000000008000000000000000000000000000000000000000000000000000000000800100000000000000040100000000000000000000000000200000000000000000002100000000000080000000000000040040040000000000000000000000000002000000000004002010000000000000200000000000000000000000000000000000000000000000000000000000004000000008000000100101000000000000000000000000000000100000000000000001000800020000000000000000000000000000000000040000000000100400",
      "type": "0x2",
      "transactionHash": "0x720a0aa975e702df0ed1de517e93be18d81c4fb93132488de4cd7e0c55d37b06",
      "transactionIndex": "0x1",
      "blockHash": "0x9defcedff5d97949c6847bdea37b3a2cfd9824882ba38d98ed6db762f09ef8c0",
      "blockNumber": "0x18fc9a8",
      "gasUsed": "0x1c2d0",
      "effectiveGasPrice": "0xe48b1b7e4",
      "from": "0x0af700a3026adfddc10f7aa8ba2419e8503592f7",
      "to": "0x711ad193a98f0cef86da4ad5312092772f39a869",
      "contractAddress": null
    },
    {
      "status": "0x1",
      "cumulativeGasUsed": "0xaff15",
      "logs": [
        {
          "address": "0x0000000000000000000000000000000000001010",
          "topics": [
            "0x4dfe1bbbcf077ddc3e01291eea2d5c70c2b422b415d95645b9adcfd678cb1d63",
            "0x0000000000000000000000000000000000000000000000000000000000001010",
            "0x0000000000000000000000000af700a3026adfddc10f7aa8ba2419e8503592f7",
            "0x00000000000000000000000085ebd6dc97d56f62e371382b38eae91f3bb4ecb2"
          ],
          "data": "0x000000000000000000000000000000000000000000000000000aa4f1d70ec7f9000000000000000000000000000000000000000000000002d008760abec555510000000000000000000000000000000000000000000001f25ffdcdd708bac324000000000000000000000000000000000000000000000002cffdd118e7b68d580000000000000000000000000000000000000000000001f2600872c8dfc98b1d",
          "blockHash": "0x9defcedff5d97949c6847bdea37b3a2cfd9824882ba38d98ed6db762f09ef8c0",
          "blockNumber": "0x18fc9a8",
          "transactionHash": "0xa40feb1cf8608a16a67e87b7b399f444772736d47b869c496d082dcd94068e92",
          "transactionIndex": "0x2",
          "logIndex": "0x4",
          "removed": false
        }
      ],
      "logsBloom": "0x00000000000000000000000000000000000000000000020001000000000000000000000000000000000000000000000000008000000000000000000000000000000000000000000000000000000000800000000000000000000100000000000000000000000000000000000000000000000000000000000080000000000000000040000000000000000000000000000000000000000004000010000000000000200000000000000000000000000000000000000000000000000000000000004000000000000000000001000000000000000000000000000000100000000000000000000000020000000000000000000000000000000000000000000000100000",
      "type": "0x2",
      "transactionHash": "0xa40feb1cf8608a16a67e87b7b399f444772736d47b869c496d082dcd94068e92",
      "transactionIndex": "0x2",
      "blockHash": "0x9defcedff5d97949c6847bdea37b3a2cfd9824882ba38d98ed6db762f09ef8c0",
      "blockNumber": "0x18fc9a8",
      "gasUsed": "0xbec5",
      "effectiveGasPrice": "0xe48b1b7e4",
      "from": "0x0af700a3026adfddc10f7aa8ba2419e8503592f7",
      "to": "0xa5d4d189939e1f8ac1e8d329273dc345554fcc95",
      "contractAddress": null
    }
  ],
  "libraries": [],
  "pending": [],
  "returns": {},
  "timestamp": 1757448322038,
  "chain": 80002,
  "commit": "3dcb0a3"
}