{
  "transactions": [
    {
      "hash": "0x05da6b987966cd0035a649c331194f65d6701a80e8ba09fbb5ec76213ac6b0f4",
      "transactionType": "CALL",
      "contractName": null,
      "contractAddress": "0xd75849340fa68e19610791c398880d8a4a089096",
      "function": "addKey(bytes32,uint256,uint256)",
      "arguments": [
        "0x434a13f61f3856e74020edf54bd00b647e8634d4f2227a292fb72ce617762ecb",
        "3",
        "1"
      ],
      "transaction": {
        "from": "0x0af700a3026adfddc10f7aa8ba2419e8503592f7",
        "to": "0xd75849340fa68e19610791c398880d8a4a089096",
        "gas": "0x2631c",
        "value": "0x0",
        "input": "0x1d381240434a13f61f3856e74020edf54bd00b647e8634d4f2227a292fb72ce617762ecb00000000000000000000000000000000000000000000000000000000000000030000000000000000000000000000000000000000000000000000000000000001",
        "nonce": "0x15c",
        "chainId": "0x13882"
      },
      "additionalContracts": [],
      "isFixedGasLimit": false
    }
  ],
  "receipts": [
    {
      "status": "0x1",
      "cumulativeGasUsed": "0x1a1db",
      "logs": [
        {
          "address": "0xd75849340fa68e19610791c398880d8a4a089096",
          "topics": [
            "0x480000bb1edad8ca1470381cc334b1917fbd51c6531f3a623ea8e0ec7e38a6e9",
            "0x434a13f61f3856e74020edf54bd00b647e8634d4f2227a292fb72ce617762ecb",
            "0x0000000000000000000000000000000000000000000000000000000000000003",
            "0x0000000000000000000000000000000000000000000000000000000000000001"
          ],
          "data": "0x",
          "blockHash": "0xfeb7e3f0ea24a7de81169d8482f40e09ceadf78278e5016ab939ec9b8fb26a9d",
          "blockNumber": "0x18fba53",
          "transactionHash": "0x05da6b987966cd0035a649c331194f65d6701a80e8ba09fbb5ec76213ac6b0f4",
          "transactionIndex": "0x0",
          "logIndex": "0x0",
          "removed": false
        },
        {
          "address": "0x0000000000000000000000000000000000001010",
          "topics": [
            "0x4dfe1bbbcf077ddc3e01291eea2d5c70c2b422b415d95645b9adcfd678cb1d63",
            "0x0000000000000000000000000000000000000000000000000000000000001010",
            "0x0000000000000000000000000af700a3026adfddc10f7aa8ba2419e8503592f7",
            "0x00000000000000000000000002f615e95563ef16f10354dba9e584e58d2d4314"
          ],
          "data": "0x000000000000000000000000000000000000000000000000002a560e86d4e7ca0000000000000000000000000000000000000000000000031139f767acac56a2000000000000000000000000000000000000000000000206201f2158f6327db1000000000000000000000000000000000000000000000003110fa15925d76ed8000000000000000000000000000000000000000000000206204977677d07657b",
          "blockHash": "0xfeb7e3f0ea24a7de81169d8482f40e09ceadf78278e5016ab939ec9b8fb26a9d",
          "blockNumber": "0x18fba53",
          "transactionHash": "0x05da6b987966cd0035a649c331194f65d6701a80e8ba09fbb5ec76213ac6b0f4",
          "transactionIndex": "0x0",
          "logIndex": "0x1",
          "removed": false
        }
      ],
      "logsBloom": "0x000000000080000000000000000000000000000000000000010000080000000000000400000000000a0000004000000000008000020000000000000000040000000000000000000000000100000000800000000000040000000100000000000000000000000000000000000000000000000000000000000080000000000000000040000000000000000000000000000000000000000004000000000000000000200100000000000000000000000000000000000000820000000000000000404000000000000000000001000000000000000000000000000000100000200040000000000000000000000000000000000040000200000000000000000000100000",
      "type": "0x2",
      "transactionHash": "0x05da6b987966cd0035a649c331194f65d6701a80e8ba09fbb5ec76213ac6b0f4",
      "transactionIndex": "0x0",
      "blockHash": "0xfeb7e3f0ea24a7de81169d8482f40e09ceadf78278e5016ab939ec9b8fb26a9d",
      "blockNumber": "0x18fba53",
      "gasUsed": "0x1a1db",
      "effectiveGasPrice": "0x19eff51abd",
      "from": "0x0af700a3026adfddc10f7aa8ba2419e8503592f7",
      "to": "0xd75849340fa68e19610791c398880d8a4a089096",
      "contractAddress": null
    }
  ],
  "libraries": [],
  "pending": [],
  "returns": {},
  "timestamp": 1757439971523,
  "chain": 80002,
  "commit": "3dcb0a3"
}