{
  "transactions": [
    {
      "hash": "0xe2d8cbeb2c13d5520cb8b07ba509a7da2febe4f47c74e0267204b23176fe94f2",
      "transactionType": "CALL",
      "contractName": null,
      "contractAddress": "0x53ace7307b7dbf39f9fb5876fcfd3ac1fb07471e",
      "function": "addAndUseTREXVersion((uint8,uint8,uint8),(address,address,address,address,address,address))",
      "arguments": [
        "(1, 0, 0)",
        "(0x364f24C2D13c0856419DD3E421efA3b41369f802, 0x6b6f358A8baa55C858ECaaF231C726f445Ddb127, 0xB0B0b80A9166a9b7c27E700FfFf6AfCfA8acaC9D, 0x0C59D4D07F39cef27d851FF664b623Ea5976FC8a, 0x7910f8B8Da1a159d6a6A2465468Fa37A9Aac16F4, 0xc56bf22DCE535612D408bd2D4236Cad6EE2c6431)"
      ],
      "transaction": {
        "from": "0x0af700a3026adfddc10f7aa8ba2419e8503592f7",
        "to": "0x53ace7307b7dbf39f9fb5876fcfd3ac1fb07471e",
        "gas": "0x44b94",
        "value": "0x0",
        "input": "0x71673bd0000000000000000000000000000000000000000000000000000000000000000100000000000000000000000000000000000000000000000000000000000000000000000000000000000000000000000000000000000000000000000000000000000000000000000000000000364f24c2d13c0856419dd3e421efa3b41369f8020000000000000000000000006b6f358a8baa55c858ecaaf231c726f445ddb127000000000000000000000000b0b0b80a9166a9b7c27e700ffff6afcfa8acac9d0000000000000000000000000c59d4d07f39cef27d851ff664b623ea5976fc8a0000000000000000000000007910f8b8da1a159d6a6a2465468fa37a9aac16f4000000000000000000000000c56bf22dce535612d408bd2d4236cad6ee2c6431",
        "nonce": "0x129",
        "chainId": "0x13882"
      },
      "additionalContracts": [],
      "isFixedGasLimit": false
    }
  ],
  "receipts": [
    {
      "status": "0x1",
      "cumulativeGasUsed": "0x2efda",
      "logs": [
        {
          "address": "0x53ace7307b7dbf39f9fb5876fcfd3ac1fb07471e",
          "topics": [
            "0xaecad55510e8cbc2b82b73c5c6d78c169403cb719460198f517d41cf7700b71b",
            "0x255ace0592d6d0057743ec81f2494d71fe5466986a2fd6f28c632dc1ef83d48b",
            "0x8bdf654fa0ef4d3232dd428de59cba6eac6f6c5db823920b27a212005da85b94"
          ],
          "data": "0x",
          "blockHash": "0x71437cdff1ed40acc3f8aa145e6213067541f1c12bfb4be75dd340807805309f",
          "blockNumber": "0x187528e",
          "transactionHash": "0xe2d8cbeb2c13d5520cb8b07ba509a7da2febe4f47c74e0267204b23176fe94f2",
          "transactionIndex": "0x0",
          "logIndex": "0x0",
          "removed": false
        },
        {
          "address": "0x53ace7307b7dbf39f9fb5876fcfd3ac1fb07471e",
          "topics": [
            "0x0a46bc1766225d5a82bc50155575dc428902e93470e34ceaf7e0faae128fe0ab",
            "0x255ace0592d6d0057743ec81f2494d71fe5466986a2fd6f28c632dc1ef83d48b"
          ],
          "data": "0x",
          "blockHash": "0x71437cdff1ed40acc3f8aa145e6213067541f1c12bfb4be75dd340807805309f",
          "blockNumber": "0x187528e",
          "transactionHash": "0xe2d8cbeb2c13d5520cb8b07ba509a7da2febe4f47c74e0267204b23176fe94f2",
          "transactionIndex": "0x0",
          "logIndex": "0x1",
          "removed": false
        },
        {
          "address": "0x0000000000000000000000000000000000001010",
          "topics": [
            "0x4dfe1bbbcf077ddc3e01291eea2d5c70c2b422b415d95645b9adcfd678cb1d63",
            "0x0000000000000000000000000000000000000000000000000000000000001010",
            "0x0000000000000000000000000af700a3026adfddc10f7aa8ba2419e8503592f7",
            "0x0000000000000000000000006dc2dd54f24979ec26212794c71afefed722280c"
          ],
          "data": "0x0000000000000000000000000000000000000000000000000086860bf7153f0200000000000000000000000000000000000000000000000355d6cc8b037bd2c3000000000000000000000000000000000000000000000942015b1f6fb6fdcce70000000000000000000000000000000000000000000000035550467f0c6693c100000000000000000000000000000000000000000000094201e1a57bae130be9",
          "blockHash": "0x71437cdff1ed40acc3f8aa145e6213067541f1c12bfb4be75dd340807805309f",
          "blockNumber": "0x187528e",
          "transactionHash": "0xe2d8cbeb2c13d5520cb8b07ba509a7da2febe4f47c74e0267204b23176fe94f2",
          "transactionIndex": "0x0",
          "logIndex": "0x2",
          "removed": false
        }
      ],
      "logsBloom": "0x00000002000000000000000000000000000000000000000001000000000000000000000000000000000000000000000000008000000000000000100000000000000000000000000000100000000000800000004000000000000100080000000000000000000000000040000000000000000000000000000080000000000000020040000000000000000000000040000000000000000004000000008000000000200000000000000000000002000000200000000000000000000000200000014000000000000000000201002000000000000000000000000000100000000000000000000000000010000008000000000000000002000000000000000000100000",
      "type": "0x2",
      "transactionHash": "0xe2d8cbeb2c13d5520cb8b07ba509a7da2febe4f47c74e0267204b23176fe94f2",
      "transactionIndex": "0x0",
      "blockHash": "0x71437cdff1ed40acc3f8aa145e6213067541f1c12bfb4be75dd340807805309f",
      "blockNumber": "0x187528e",
      "gasUsed": "0x2efda",
      "effectiveGasPrice": "0x2dcde7aba4",
      "from": "0x0af700a3026adfddc10f7aa8ba2419e8503592f7",
      "to": "0x53ace7307b7dbf39f9fb5876fcfd3ac1fb07471e",
      "contractAddress": null
    }
  ],
  "libraries": [],
  "pending": [],
  "returns": {},
  "timestamp": 1756244060839,
  "chain": 80002,
  "commit": "3dcb0a3"
}